:10F000004BC0000064C0000062C0000060C000008F
:10F010005EC000005CC000005AC0000058C0000084
:10F0200056C0000054C0000055C4000050C000008D
:10F030004EC000004CC000004AC0000048C00000A4
:10F0400046C0000044C0000042C0000040C00000B4
:10F050003EC000003CC000003AC0000038C00000C4
:10F0600036C0000034C0000032C0000030C00000D4
:10F070002EC000002CC000002AC0000028C00000E4
:10F0800026C0000024C0000022C0000020C00000F4
:10F090001EC000001CC0000011241FBECFEFD0E135
:10F0A000DEBFCDBF11E0A0E0B1E0E2EBFDEF02C0BA
:10F0B00005900D92AC38B107D9F711E0ACE8B1E09A
:10F0C00001C01D92AE39B107E1F711D370C698CFD8
:10F0D00080918C0190918D01A0918E01B0918F0152
:10F0E000835D9D4FAF4FBF4F80938C0190938D01F7
:10F0F000A0938E01B0938F0190918E0180918F012A
:10F1000080FD909580918C01891710F080E001C0FE
:10F1100080E88EB9089584E08093E9000DC0809165
:10F12000E8008B778093E80003C08EB3882351F00A
:10F130008091E80082FFF9CF8091E80085FFEFCF52
:10F140008091F1000895982F83E08093E9008091E9
:10F15000E80085FD0DC08091E8008E778093E8007F
:10F1600003C08EB3882331F08091E80080FFF9CF8F
:10F170009093F10008954F925F926F927F928F92D9
:10F180009F92AF92BF92CF92DF92EF92FF920F9336
:10F190001F93CF93DF9384E08093E9008091E80090
:10F1A00082FF5AC2B8DF182F853419F410920F016C
:10F1B00003C0843519F4AFDF8DE024C28C34E1F351
:10F1C0008035D1F3843711F484E490C0813611F492
:10F1D00089E518C28134E9F49EDFF82EFF0CEE2495
:10F1E0000027F7FC0095102FE0929001F09291011A
:10F1F00000939201109393018EDF90E0880F991F86
:10F20000AA2797FDA095BA2F8E299F29A02BB12B55
:10F21000C4C1803711F483E5F5C1833549F4C0E0FA
:10F22000D1E0899190DF41E0C730D407D1F7EBC13D
:10F23000863521F481E387DF80E3E4C1833731F44D
:10F2400082E881DF86E97FDF8EE1DCC18536C9F4A3
:10F2500080E090E033E025E0FC0130935700E89532
:10F2600007B600FCFDCFFC0120935700E89507B6D8
:10F2700000FCFDCF80509F4F40EF8030940761F736
:10F280009BCF8C3651F447DF809599E0E1E0F0E0C8
:10F29000082E90935700E8958FCF823739F489E094
:10F2A000E1E0F0E0809357008491ACC1863439F4FA
:10F2B00089E0E0E0F0E0809357008491A3C18E34B0
:10F2C00039F489E0E3E0F0E08093570084919AC13B
:10F2D000813539F489E0E2E0F0E0809357008491D1
:10F2E00091C1823631F489E52EDF81E02CDF80E0A8
:10F2F00089C1823419F0873609F0EEC00CDF082F7F
:10F300000ADFF82E08DF682E8554823008F079C1B4
:10F31000902F80E0CF2DD0E0C82BD92B173609F0E5
:10F3200057C081E180935700E89510E001E04CC0A0
:10F3300086E4681611F5E12FF0E08091900190913C
:10F340009101E82BF92BE4918E2FFDDE112399F02A
:10F350008091900190919101A0919201B0919301BF
:10F360000296A11DB11D8093900190939101A093ED
:10F370009201B0939301102726C080919001909143
:10F380009101A0919201B0919301F999FECFB695A8
:10F39000A7959795879592BD81BDF89A80B5D3DEE4
:10F3A0008091900190919101A0919201B09193016F
:10F3B0000296A11DB11D8093900190939101A0939D
:10F3C0009201B09393012197209709F0B1CF1BC10F
:10F3D0008090900190909101A0909201B090930143
:10F3E00046E4641609F064C083E0F401809357009A
:10F3F000E89507B600FCFDCF5BC086E4681659F5BA
:10F40000772029F1009190011091910184DED82E8E
:10F41000CC24852D90E08C299D290C01F801409287
:10F420005700E89511248091900190919101A0914D
:10F430009201B09193010296A11DB11D809390019C
:10F4400090939101A0939201B093930102C063DE67
:10F45000582E74242BC0E0909001F09091010091FF
:10F4600092011091930157DEF999FECF1FBA1695BC
:10F470000795F794E794F2BCE1BC80BD0FB6F89411
:10F48000FA9AF99A0FBE8091900190919101A09102
:10F490009201B09193010296A11DB11D809390013C
:10F4A00090939101A0939201B0939301219704C08E
:10F4B0005524772444244394209709F09ECF46E4B2
:10F4C000641609F079CE85E0F40180935700E89541
:10F4D00007B600FCFDCF70CE833471F4009190012B
:10F4E0001091910118DE90E021E00C01F8012093C9
:10F4F0005700E895112460CE833679F4009190018D
:10F5000010919101016007DE90E021E00C01F8010B
:10F5100020935700E895112435C08D3669F4809109
:10F5200090019091910125E0FC0120935700E8950E
:10F5300007B600FCFDCF40CE823551F4E09190013A
:10F54000F091910105911491812FFDDD802F5AC01A
:10F55000843461F5E0909001F09091010091920166
:10F5600010919301D8DDF999FECF1FBA1695079532
:10F57000F794E794F2BCE1BC80BD0FB6F894FA9A18
:10F58000F99A0FBE8091900190919101A091920102
:10F59000B09193010296A11DB11D809390019093AB
:10F5A0009101A0939201B093930106CE843639F570
:10F5B0008091900190919101A0919201B09193015D
:10F5C000F999FECFB695A7959795879592BD81BD80
:10F5D000F89A80B5B8DD8091900190919101A09149
:10F5E0009201B09193010296A11DB11D80939001EB
:10F5F00090939101A0939201B093930104C08B3139
:10F6000011F08FE3A0DD83E08093E9009091E800A2
:10F610008091E8008E778093E80095FF04C010C0C9
:10F620008EB38823C9F08091E80080FFF9CF8091E4
:10F63000E8008E778093E80003C08EB3882361F0E2
:10F640008091E80080FFF9CF84E08093E900809109
:10F65000E8008B778093E800DF91CF911F910F91A5
:10F66000FF90EF90DF90CF90BF90AF909F908F90E2
:10F670007F906F905F904F900895809197018032B6
:10F68000B1F0813239F580919601813A19F5809176
:10F69000E800877F8093E80088E091E067E070E011
:10F6A000D9D28091E8008B778093E800089580910B
:10F6B0009601813279F48091E800877F8093E80099
:10F6C00088E091E067E070E021D38091E8008E77D8
:10F6D0008093E800089582E061EC42E06BD083E023
:10F6E00061E842E167D084E060E842E163C084B74A
:10F6F000877F84BF88E10FB6F894809360001092F2
:10F7000060000FBE1DB8629B02C00C9400006F9A8F
:10F7100080E090E020E80FB6F89420936100809399
:10F7200061000FBE81E085BF82E085BFBDD07894C7
:10F7300003C0CEDC20DD29D380910F018823C9F7D7
:10F740008091E00081608093E0002CE088E190E00F
:10F750000FB6F894A895809360000FBE20936000C8
:10F76000FFCFFA01923071F0933089F0913029F493
:10F7700080E191E022E130E019C080E090E020E0FB
:10F7800030E014C082E291E02EE330E00FC0882325
:10F7900039F480916001282F30E080E691E006C0C6
:10F7A00080916401282F30E084E691E0918380838A
:10F7B000C90108958093E9008091EB0081608093F6
:10F7C000EB001092ED006093EC004093ED0080910F
:10F7D000EE00881F8827881F08958091960188234E
:10F7E0008CF403C08EB38823B1F08091E80082FFCF
:10F7F000F9CF8091E8008B778093E80008958EB36D
:10F80000882349F08091E80080FFF9CF8091E800DB
:10F810008E778093E800089550D057D08091D8001B
:10F82000982F9F779093D80080688093D80088E1C4
:10F8300089BD89B5826089BD09B400FEFDCF809184
:10F84000D8008F7D8093D8008091D7008068809306
:10F85000D7001EBA109294018091E0008B7F8093B4
:10F86000E0008091D80081608093D80080E060E063
:10F8700042E0A0DF8091E1008E7F8093E1008091E3
:10F88000E20081608093E2008091E20088608093D2
:10F89000E2008091E0008E7F8093E0008091D800AC
:10F8A00080618093D8000895E7EDF0E08081816069
:10F8B000808381E080939501AFCFE8EDF0E0808117
:10F8C0008C7F80831092E20008951092DA001092EB
:10F8D000E10008951F920F920FB60F9211242F93FB
:10F8E0003F934F935F936F937F938F939F93AF93C8
:10F8F000BF93EF93FF938091DA0080FF13C0809154
:10F90000D80080FF0FC08091DA008E7F8093DA00EC
:10F910008091D90080FF04C081E08EBB9AD102C0E3
:10F920001EBA97D18091E10080FF1CC08091E20057
:10F9300080FF18C08091E1008E7F8093E10080916C
:10F94000E2008E7F8093E2008091E20080618093EC
:10F95000E2008091D80080628093D80019BC85E0D5
:10F960008EBB77D18091E10084FF2DC08091E200B1
:10F9700084FF29C088E189BD89B5826089BD09B449
:10F9800000FEFDCF8091D8008F7D8093D8008091BC
:10F99000E1008F7E8093E1008091E2008F7E809372
:10F9A000E2008091E20081608093E2008091940106
:10F9B000882331F48091E30087FD02C081E001C01B
:10F9C00084E08EBB46D18091E10083FF21C080910D
:10F9D000E20083FF1DC08091E100877F8093E100FA
:10F9E00082E08EBB109294018091E1008E7F809323
:10F9F000E1008091E2008E7F8093E2008091E2003E
:10FA000080618093E20080E060E042E0D3DE21D1BB
:10FA1000FF91EF91BF91AF919F918F917F916F91E6
:10FA20005F914F913F912F910F900FBE0F901F90BC
:10FA300018950F931F93DF93CF9300D0CDB7DEB708
:10FA4000E6E9F1E08091F100819381E0EE39F80779
:10FA5000C9F713DE8091E80083FFE6C0809196012C
:10FA600090919701953009F46DC0963040F4913033
:10FA700081F1913070F0933009F0D6C02AC09830EF
:10FA800009F4A5C0993009F4B4C0963009F0CCC08F
:10FA90007EC0803809F4C8C0823809F0C5C08091A2
:10FAA0009A0187708093E9008091EB001092E90041
:10FAB0002091E800277F2093E80090E025E09695CC
:10FAC00087952A95E1F781708093F1001092F100FB
:10FAD00089C0882319F0823009F0A6C08F71823066
:10FAE00009F0A2C080919801882331F520919A01F4
:10FAF000277009F499C02093E9008091EB0080FF02
:10FB00001BC0933021F48091EB00806213C0809180
:10FB1000EB0080618093EB0081E090E002C0880FF1
:10FB2000991F2A95E2F78093EA001092EA008091EB
:10FB3000EB0088608093EB001092E9008091E80070
:10FB4000877F53C0882309F06FC0109198011F77F9
:10FB50000FB7F8948091E800877F8093E8003DDE3E
:10FB60008091E80080FFFCCF112311F482E001C0F6
:10FB700083E08EBB8091E3008078182B1093E30024
:10FB80008091E30080688093E3000FBF4DC08058F0
:10FB9000823008F049C0809198019091990160915C
:10FBA0009A01AE014F5F5F4FDCDDBC01009709F4A5
:10FBB0003BC08091E800877F8093E80089819A812B
:10FBC00049D08091E8008B778093E8002DC0803881
:10FBD00059F58091E800877F8093E8008091940137
:10FBE0008093F1008091E8008E778093E800F5DD46
:10FBF0001BC08823C9F4909198019230A8F4809199
:10FC0000E800877F8093E80090939401E6DD80917F
:10FC10009401882331F48091E30087FD02C081E0E4
:10FC200001C084E08EBB57DD8091E80083FF0AC0ED
:10FC30008091EB0080628093EB008091E800877FE9
:10FC40008093E8000F900F90CF91DF911F910F915B
:10FC5000089508959C0140919C0150919D01461783
:10FC6000570718F4F90190E03CC06115710511F0D7
:10FC7000AB01F8CF8091E8008E778093E80040E0F8
:10FC800050E0F0CF8EB38823E9F18530E9F180911F
:10FC9000E80083FF02C081E008958091E80082FDC2
:10FCA0002BC08091E80080FF1CC02091F2003091B1
:10FCB000F30007C081918093F100415050402F5FC5
:10FCC0003F4F4115510519F02830310598F390E068
:10FCD0002830310509F491E08091E8008E77809317
:10FCE000E8004115510571F6992361F605C08EB300
:10FCF000882341F0853041F08091E80082FFF7CF02
:10FD000080E0089582E0089583E008959C016115E4
:10FD1000710529F48091E8008B778093E800F90160
:10FD200021C08EB3882369F1853069F18091E800A4
:10FD300083FF02C081E008958091E80082FFF1CF47
:10FD400006C08091F10081936150704031F0809144
:10FD5000F2009091F300892BA1F78091E8008B7756
:10FD60008093E80061157105E1F605C08EB3882324
:10FD700041F0853041F08091E80080FFF7CF80E0CE
:10FD8000089582E0089583E008951F938EB3882339
:10FD900061F01091E9001092E9008091E80083FF82
:10FDA00001C047DE17701093E9001F910895F89481
:02FDB000FFCF83
:10FDB2004C55464143444300000000000000080146
:10FDC2001201100102000008EB034A2001000001A9
:10FDD200000109023E000201008032090400000114
:10FDE2000202010005240010010424020405240675
:10FDF2000001070582030800FF09040100020A004E
:10FE0200000007050402100001070583021000012B
:10FE12000403090426034100560052002000430057
:10FE220044004300200042006F006F0074006C0029
:0CFE32006F0061006400650072000000B9
:040000030000F00009
:00000001FF
