:10000000ECC0000012C1000010C100000EC10000D1
:100010000CC100000AC1000008C1000006C10000B8
:1000200004C1000002C100000C945D160C94DB14A6
:10003000FCC00000FAC00000F8C00000F6C00000DC
:10004000F4C000000C94680AF0C00000EEC000008C
:10005000ECC00000EAC00000E8C000000C94A4134B
:10006000E4C00000E2C00000E0C00000DEC000000C
:10007000DCC00000DAC00000D8C00000D6C000001C
:100080000C943F0AD2C00000D0C00000CEC00000D7
:100090000C94A50CCAC000000129022904290829D2
:1000A0001029202940298029012C022C0126022612
:1000B000042608261026202640268026402C802C48
:1000C0000123022304230823102320234023802319
:1000D0000120022004200820102020204020802021
:1000E000102C202C012F022F042F082F102F202F2F
:1000F000402F802F7EFE7EFD7EFB7EF77EEF7EDF33
:100100007EBF7E7F00010000380112000200004A1D
:100110000143000300008D0104010309049101184B
:1001200002030904AB011603030904C3010C000117
:10013000C102018036018136120100020200002056
:10014000C0168304000101020301090243000201F9
:1001500000C0320904000001020201000524001061
:1001600001052401000104240206052406000107FC
:1001700005820308004009040100020A000000078C
:100180000503024000000705840240000004030943
:100190000418035400650065006E00730079006464
:1001A00000750069006E006F0000001603550053D3
:1001B0000042002000530065007200690061006C7D
:1001C0000000000C03310032003300340035000021
:1001D000000091015D0B940F741811241FBECFEF26
:1001E000D0E1DEBFCDBF12E0A0E0B1E0E4E8F3E390
:1001F00002C005900D92A033B107D9F714E0A0E337
:10020000B2E001C01D92A43BB107E1F711E0CAEDD5
:10021000D1E004C02297FE010E94BC19C23DD10763
:10022000C9F70E94D7160C94C019EACEFB01DC0175
:100230004150504048F001900D920020C9F701C094
:100240001D9241505040E0F70895FC0181E090E09C
:100250000190061609F4CF010020D1F70197089507
:10026000FB0151915523A9F0BF01DC014D914517C8
:100270004111E1F759F4CD010190002049F04D9171
:1002800040154111C9F3FB014111EFCF81E090E02E
:1002900001970895DF93CF930F92CDB7DEB7FC019E
:1002A0006983A081B18112962D913C911397BE0173
:1002B0006F5F7F4F41E050E0F90109950F90CF91BA
:1002C000DF910895482F883018F520913002309141
:1002D0003102672B81F481E090E002C0880F991F02
:1002E0004A95E2F78095909528233923309331027F
:1002F00020933002089581E090E002C0880F991F9A
:100300004A95E2F7282B392B3093310220933002A3
:100310000895863028F4E82FF0E0EE5CFD4F60830E
:100320000895CF93DF93C1E1D3E0CE01EBD62396BE
:1003300083E0C935D807C9F7DF91CF9108950F93AE
:100340001F93CF93DF93863008F089C090E0019629
:10035000A82FAA0FAA0FAA0F0197AF3208F0AEE29A
:1003600023E0880F991F2A95E1F7282F782F31E095
:10037000B0E0C62FD0E001E010E01AC0472F50E0F7
:10038000FA01E25CFD4F8081823080F4B32BFA01E8
:10039000EE0FFF1FEE58FD4F11821082832F90E069
:1003A0008C239D23892B11F011830083330F7F5FF2
:1003B0007A1720F39B2FB0FF07C0E22FF0E0862FC3
:1003C0008170082E0E946B1291FF09C02F5FE22FEF
:1003D000F0E02150862F8270082E0E946B1292FF4F
:1003E00009C02E5FE22FF0E02250862F8470082E85
:1003F0000E946B1293FF09C02D5FE22FF0E02350A3
:10040000862F8870082E0E946B1294FF09C02C5F03
:10041000E22FF0E02450862F8071082E0E946B128C
:1004200095FF09C02B5FE22FF0E02550862F8072E8
:10043000082E0E946B1296FF09C02A5FE22FF0E09F
:100440002650862F8074082E0E946B12B7FF07C0BB
:10045000295FE22FF0E06078062E0E946B12DF9198
:10046000CF911F910F9108950F931F93CF93DF9317
:10047000982F8B018E3248F5C82FD0E0FE01E25C48
:10048000FD4FE081E33069F0E430F9F48831B8F4ED
:10049000CE01880F991F8C0F9D1F8F5E9C4FCAD66F
:1004A0000EC08E50833038F08A50843020F099236B
:1004B00011F0913021F4892FB8010E941514CC0F4E
:1004C000DD1FCE58DD4F19830883DF91CF911F9137
:1004D0000F910895DF92EF92FF920F931F93CF93A6
:1004E000DF93D82E7B01082F10E0F801E25CFD4F6E
:1004F0008081863061F480910E03882341F066305C
:10050000710529F010920E038FEF80930502E7E149
:10051000ED1588F0F4E0EF16F10469F0E801CC0F76
:10052000DD1FC00FD11FCF5EDC4FCE0171D68823F7
:1005300011F0CE0101D64D2D46524830B8F420912D
:1005400030023091310282E0E816F10409F0CDC0AA
:1005500081E090E0042E02C0880F991F0A94E2F710
:10056000282B392B3093310220933002EDE2ED1528
:1005700030F1ED2DE695E695E695980127703070FF
:10058000E114F10471F4F0E0E459FD4F81E090E0F2
:1005900002C0880F991F2A95E2F72081282B20831B
:1005A0000EC0F0E0E459FD4F81E090E002C0880FFA
:1005B000991F2A95E2F780952081822380839801F4
:1005C000220F331FF901EE58FD4F11821082F2E025
:1005D000EF16F104E1F083E0E816F1044CF4E114C5
:1005E000F10431F1E1E0EE16F10409F077C030C01A
:1005F000F4E0EF16F10409F453C084E0E816F104C6
:10060000B4F1E6E0EE16F10409F068C05EC04830CF
:1006100008F078C0FDE2FD1538F08D2D0E944312E0
:10062000ED2DF0E00E947412025C1D4F82E053C079
:10063000FDE2FD1508F466C08D2D0E944312ED2DDC
:10064000F0E00E947412025C1D4FF80110825AC043
:10065000FDE2FD1508F456C0ED2DF0E00E94741285
:100660008D2D0E943212025C1D4F81E034C08D2D11
:100670008E50833048F08A50843030F0DD2021F0F5
:10068000F1E0DF1609F03EC08D2D0E9432128D2D53
:1006900060E070E00E941514025C1D4F83E01BC0F7
:1006A000F7E1FD1578F1F801E25CFD4F84E080830D
:1006B000E901C00FD11FCF5EDC4FCE01A9D5882341
:1006C00009F5CE01B801BAD71DC081E08D15D0F073
:1006D000025C1D4F86E0F801808314C08EE594E033
:1006E00060E071E00E94F60F0DC081E090E0042E02
:1006F00002C0880F991F0A94E2F7809590952823ED
:10070000392330CFDF91CF911F910F91FF90EF9060
:10071000DF9008951F9380910E03882329F0109293
:100720000E038FEF8093050280E090E0FC01EE5C09
:10073000FD4F1082FC01E459FD4F1082FC01E85C82
:10074000FD4F108201968630910581F710E0812FD0
:100750008652883020F4812F62E070E003C0812F40
:1007600061E070E0B7DE1F5F1E3289F71092310240
:10077000109230025C9A709A429A469A8091900048
:100780008F77809390001F9108950F931F930EE52C
:1007900014E0C80161E171E042E023E00E94EA1048
:1007A000C80160EE44E352E00E94500FC80160E9C6
:1007B0004FE951E00E94500FC80160EC42E651E061
:1007C0000E94500FC80160ED49E851E00E94500FAF
:1007D000C80164EF4AE652E00E94500FC80160EF82
:1007E0004FE456E00E94740FC8016FEF4AE853E0EF
:1007F0000E946E0FC80140E051EE60E070E00E9480
:10080000581188DF1F910F9108951F9310E0123047
:1008100020F4812F66E070E05DDE1F5F1E32B9F7C5
:1008200081E080930E038AEE93E0D6D71F9108955E
:100830001F93CF93DF93282F162FC82FD0E0FE01F0
:10084000E459FD4F80811823442331F4FE01E85C14
:10085000FD4F8081811751F08EE594E0622F412F8A
:1008600050E00E94EE0EC85CDD4F1883DF91CF91FF
:100870001F91089580913202882341F190916C027A
:10088000892F90FD02C060E002C069B1617081FFF4
:1008900002C04999626082FF02C04A99646083FF86
:1008A00002C04B99686084FF02C04C99606185FF6B
:1008B00002C04D99606286FF02C04E99606497FF46
:1008C00002C04F99606880E040E0B2DF809133025F
:1008D000882341F190916D02892F90FD02C060E064
:1008E00002C06CB1617081FF02C06199626082FFD9
:1008F00002C03099646083FF02C03199686084FF50
:1009000002C03299606185FF02C03399606286FF40
:1009100002C03499606497FF02C03599606881E035
:1009200040E086DF80913402882379F130916E02B5
:10093000232F30FD02C060E009C086B190E0A6E040
:1009400096958795AA95E1F7682F617021FF02C0FF
:100950003799626022FF02C06699646023FF02C07B
:100960006799686024FF02C01899606125FF02C082
:100970001999606226FF02C01A99606437FF02C0AD
:100980001B99606882E040E053DF80913502882344
:1009900079F130916F02232F30FD02C060E009C071
:1009A00083B190E0F4E096958795FA95E1F7682F8A
:1009B000617021FF02C01D99626022FF02C01E9972
:1009C000646023FF02C01F99686024FF02C0009981
:1009D000606125FF02C00199606226FF02C0029992
:1009E000606437FF02C00399606883E040E020DF65
:1009F00080913602882379F130917002232F30FDE7
:100A000002C060E009C080B190E0E4E0969587956F
:100A1000EA95E1F7682F617021FF02C005996260D5
:100A200022FF02C00699646023FF02C00799686034
:100A300024FF02C06499606125FF02C0659960626D
:100A400026FF02C07899606437FF02C07999606818
:100A500084E040E0EDDE80913702882331F180911F
:100A60007102282F80FD02C060E008C08FB190E0C5
:100A70009695879596958795682F617021FF02C09E
:100A80007B99626022FF02C07C99646023FF02C0F0
:100A90007D99686024FF02C07E99606125FF02C0D5
:100AA0007F99606285E040E0C3CE0895EF92FF92A7
:100AB0000F931F93CF93DF93F82EEB01E42E8FEF6C
:100AC0006F3F780719F4C0E0D0E018C08AEE93E0D9
:100AD0006F2DB9D58AEE93E06C2F36D68AEE93E06F
:100AE00060D680910F0390911003029738F031F097
:100AF000880F991F880F991F0197F1F78AEE93E0ED
:100B00006F2D4E2D5DD60E2D10E08AEE93E0A5D50B
:100B10000817190789F4F092EE02C093EF02C0EFB4
:100B2000D2E00C0F1D1F04C08AEE93E09FD589937D
:100B3000C017D107C9F711C08AEE93E08ED5801790
:100B400091072CF48EE594E062E771E004C08EE535
:100B500094E06AE971E00E94F60F82E0E80E8EE50B
:100B600094E067E74E2D2EEE32E00E94200FDF91D9
:100B7000CF911F910F91FF90EF900895EF92FF9208
:100B80000F931F93CF93DF9375DE04C08EE594E03F
:100B90000E943E108EE594E00E94C80E892BB1F7AA
:100BA0000FB6F89480919F049091A004A091A104A5
:100BB000B091A2040FBE8093CE029093CF02A09377
:100BC000D002B093D102E090D202F090D302009113
:100BD000D4021091D5022091030230910402A901A0
:100BE000662757FD6095762F8E199F09A00BB10BD4
:100BF000481759076A077B0708F04AC04E0D5F1D6A
:100C0000601F711F4093D2025093D3026093D402AD
:100C10007093D502CEE3D2E01AED1830C0F488818B
:100C20008230A9F48091300290913102012E02C0ED
:100C3000959587950A94E2F780FF09C0812F0E945D
:100C40000312AC018EE594E0612F0E94D40E1F5F69
:100C50002196183011F78091050287FD19C010E028
:100C60000DC0F901EE0FFF1FE20FF31FEA52FD4F17
:100C70006181808170E0428119DF1F5F212F30E0A8
:100C800080910502992787FD9095821793074CF76D
:100C9000DF91CF911F910F91FF90EF900895BF9238
:100CA000CF92DF92EF92FF920F931F93CF93DF9338
:100CB000062FEA018F3609F443C1803750F48B3692
:100CC00009F45DC18D3609F4AFC1893609F010C24F
:100CD000F7C1863769F0873720F4803709F008C2FA
:100CE000DFC0883709F4C3C08A3709F001C20DC1DB
:100CF000898185FF05C08EE594E061EC71E050C00C
:100D000068818871883041F1893018F4882341F076
:100D1000EFC1803109F43CC0883109F0E9C160C0FD
:100D20008AEE93E090D412E00DC0FE01E10FF11DB8
:100D300061816795662767958081680F8AEE93E0E9
:100D400003D51E5F101788F38AEE93E02AD588E159
:100D500091E00197F1F7CCC19B818A81063071F453
:100D6000979599279795980F4D81479544274795D3
:100D70008C81480F862F692F70E008C097959927BE
:100D80009795980F862F6FEF7FEF492F8FDEB0C1B9
:100D90008091050287303CF08EE594E06DEE71E0C5
:100DA0000E94F60FA5C18F5F80930502992787FDEA
:100DB0009095FC01EE0FFF1FE80FF91FEA52FD4F5F
:100DC00060838B818795882787959A81890F818396
:100DD0008D818795882787959C81890F828388C11B
:100DE00050910502151634F420E0C52FDD27C7FD0C
:100DF000D09511C08FEF809305027AC1FC01EE0FF0
:100E0000FF1FE80FF91FEA52FD4F6083662311F0C0
:100E1000422F24C02F5F822F90E0C817D90774F7A4
:100E200040E01CC04830C8F4C9010196D901AA0F9E
:100E3000BB1FA20FB31FAA52BD4FFC01EE0FFF1F35
:100E4000E80FF91FEA52FD4F80818C938081119643
:100E50008C931197828112968C934F5F242F30E0F0
:100E6000C217D307FCF651505093050241C1898146
:100E7000682F70E07695762F66277795679588813D
:100E8000680F711D6115710521F070931003609357
:100E90000F0380910E03882309F02AC1B6DC28C114
:100EA000653008F425C1F880C980EA80BB80DC8009
:100EB00087E18F1508F41CC10F2D10E0E801CC0F5D
:100EC000DD1FC00FD11FCF5EDC4FCE01A1D1882323
:100ED00011F0CE0131D14E2D50E05695542F4427BC
:100EE000579547954C0D511D2D2D30E03695322FDD
:100EF0002227379527952B0D311DCE01B80111D32F
:100F00008F2D64E070E0E6DAF3C0623008F4F0C0E0
:100F1000898190E09695982F8827979587952881C5
:100F2000820F911D90930402809303020A970CF0A4
:100F3000DFC08AE090E09093040280930302D8C05F
:100F4000623008F4D5C08981682F70E00230A1F0CA
:100F50008A8190E09695982F882797958795682B9A
:100F6000792B033049F02B81922F9295990F990F8D
:100F7000907C80E0682B792B888176DAB9C088EA8A
:100F800094E060EF87D988EA94E06CE683D910E0BA
:100F900088EA94E060E07ED988EA94E061E07AD95A
:100FA00088EA94E061E076D988EA94E061E072D959
:100FB000812F8652883040F488EA94E062E06AD952
:100FC00088EA94E06AE066D9812F8E50833038F049
:100FD0008A50843020F0112311F0113041F488EA56
:100FE00094E063E057D988EA94E068E053D9183177
:100FF00090F488EA94E064E04DD988EA94E06EE0E9
:1010000049D9123040F488EA94E066E043D988EA8E
:1010100094E061E03FD988EA94E06FE73BD91F5F35
:101020001E3209F0B5CF60C0662309F461C00881A3
:1010300088EA94E060EF2ED988EA94E06EE62AD937
:1010400088EA94E0602F26D90E3208F04DC0C02FF8
:10105000D0E0FE01E25CFD4F88EA94E060811AD99D
:101060008E01000F111F0E581D4FF80160816F7720
:1010700088EA94E00FD9F80160817181CB01807812
:10108000892B41F0660F672F661F770B6F7788EA11
:1010900094E000D9CC0FDD1FCE58DD4F2881398177
:1010A000C9018070907C892BF9F0330F220B330F2C
:1010B000322F221F622F6F7788EA94E0EBD814C09A
:1010C00088EA94E060EFE6D888EA94E06AE6E2D83D
:1010D0000AED083010F06FE701C0602F88EA94E055
:1010E000D9D80F5F0830A9F788EA94E067EFD2D823
:1010F000DF91CF911F910F91FF90EF90DF90CF90F4
:10110000BF900895FC0180915903883190F4808349
:101110008F5F80935903815090E0FC01EE0FFF1F19
:10112000E80FF91FE65AFC4F88EB9BE0928381831E
:1011300008958FEF80830895DC018C9190E0FC018D
:10114000EE0FFF1FE80FF91FE65AFC4F80818F7BDF
:1011500080838C916CE00E944A1990E0AC01440FAE
:10116000551F480F591F440F551F440F551F20E0AE
:1011700030E0C901840F951FFC01EE0FFF1FE80F3F
:10118000F91FE65AFC4F808186FD05C02F5F3F4F57
:101190002C30310571F70895FC0120812831B8F514
:1011A0008181992787FD909548E850E0481B590BAD
:1011B000440F551F440F551F6417750784F0828133
:1011C000992787FD909548E552E0481B590B440F3D
:1011D000551F440F551F641775070CF4AB0142509F
:1011E0005040CA01AA2797FDA095BA2F880F991FD2
:1011F000AA1FBB1F4FB7F89430E0F901EE0FFF1F95
:10120000E20FF31FE65AFC4F928381834FBF08958C
:10121000FC01808190E0FC01EE0FFF1FE80FF91F39
:10122000E65AFC4F8081829586958695817009F0FB
:1012300081E00895AF92BF92CF92DF92EF92FF923A
:101240000F931F93CF93DF93EC019B0182E06032F9
:1012500078070CF048C077FF03C020E030E005C0FD
:10126000653B710514F024EB30E000D000D0B901EB
:10127000882777FD8095982F2981332727FD309582
:10128000E8E8AE2EB12CA21AB30AAA0CBB1CAA0C19
:10129000BB1CCC24B7FCC094DC2CEA81FF27E7FD03
:1012A000F09528E532E02E1B3F0B220F331F220F53
:1012B000331F442737FD4095542FEDB7FEB72183E8
:1012C00032834383548320E030E040E050E004EB7D
:1012D000E02EF12C012D112D0E94E4189B010F909E
:1012E0000F900F900F90CE01B90156DFDF91CF9193
:1012F0001F910F91FF90EF90DF90CF90BF90AF9034
:1013000008950F931F93CF93DF938A01EC01DC01C3
:10131000AE55BC4F8C9187FF04C0FB011182108237
:1013200038C0AE01440F551F4C0F5D1F440F551FB1
:10133000440F551F2C91332727FD3095240F351F5F
:101340008091590390E0281739071CF58C91992753
:1013500087FD9095840F951FFC01EE0FFF1FE80F8E
:10136000F91FE65AFC4F808186FF13C08C919927A4
:1013700087FD9095840F951FFC01EE0FFF1FE80F6E
:10138000F91FE65AFC4F80818F73E82FF0E00E942E
:101390007412DE01AE55BC4F8C918F5F8C93AE0101
:1013A000440F551F4C0F5D1F440F551F440F551F11
:1013B0002C91332727FD3095240F351F8091590339
:1013C00090E0281739070CF04EC08C918C300CF04F
:1013D0004AC0FB01208131818C91992787FD90952E
:1013E000840F951FFC01EE0FFF1FE80FF91FE65A4F
:1013F000FC4F81819281280F391FF80131832083AE
:101400008C91992787FD9095840F951FFC01EE0F15
:10141000FF1FE80FF91FE65AFC4F808186FF2AC0A4
:101420008C91992787FD9095840F951FFC01EE0FF5
:10143000FF1FE80FF91FE65AFC4F80818F73E82FDA
:10144000F0E00E946E1216C080E49CE904C0FB012B
:10145000808191810496F80191838083CE55DC4F81
:101460008FEF888307C0FB018081918184549C4960
:1014700058F3EDCFDF91CF911F910F9108951F92F7
:101480000F920FB60F9211242F933F934F935F93B8
:101490006F937F938F939F93AF93BF93EF93FF933C
:1014A00080E090E064E970E048E950E02ADFFF91D5
:1014B000EF91BF91AF919F918F917F916F915F91CC
:1014C0004F913F912F910F900FBE0F901F90189545
:1014D0001F920F920FB60F9211242F933F934F93A9
:1014E0005F936F937F938F939F93AF93BF93EF938C
:1014F000FF9381E090E064E870E048E850E001DFAD
:10150000FF91EF91BF91AF919F918F917F916F91DB
:101510005F914F913F912F910F900FBE0F901F90B1
:101520001895CF92DF92EF92FF921F93CF93DF93A4
:10153000EC01162F7A0169018881883108F071C0A9
:10154000862F90D7888190E0FC01EE0FFF1FE80FF7
:10155000F91FE65AFC4F1F738081807C812B8083AA
:1015600080E292E08E199F0964E070E00E945619B3
:10157000698380E699E08C199D0964E070E00E941F
:1015800056196A83A8818A2F6CE00E944A19682F35
:1015900070E0AB01440F551F460F571F440F551FF6
:1015A000440F551F20E030E0C901840F951FFC0156
:1015B000EE0FFF1FE80FF91FE65AFC4F808186FDF2
:1015C00024C02F5F3F4F2C30310571F733C010928C
:1015D000800082E080938100109285001092840048
:1015E000B19A80916F00826080936F000EC0672B6C
:1015F00061F41092900082E0809391001092950027
:101600001092940088BB809371008A2F90E0FC01B7
:10161000EE0FFF1FE80FF91FE65AFC4F8081806430
:1016200080838881DF91CF911F91FF90EF90DF90B1
:10163000CF90089561307105D1F6C9CF40E252E0F4
:1016400020E639E06ECF81E08093E9036093C60322
:101650001092E7031092E80308952091C50330E04B
:101660008091C403281B3109C90108954091C40326
:101670008091C503481718F02FEF3FEF0AC0E42F01
:10168000F0E0EC55FC4F8081282F30E04F5F409315
:10169000C403C9010895E091C4038091C503E8170C
:1016A00018F0EFEFFFEF06C0F0E0EC55FC4F808143
:1016B000E82FF0E0CF01089508951092EC0388EE32
:1016C00093E0A0E0B0E08093ED039093EE03A0934D
:1016D000EF03B093F0031092F10384E192E0909352
:1016E000EB038093EA030895CF92DF92EF92FF928B
:1016F0000F931F93CF93DF937C016B018A0180913D
:10170000E9038823A1F0C0E0D0E00DC0D701ED913E
:10171000FC91D601AC0FBD1F0190F081E02DC701F7
:101720006C9109952196C017D10780F303C0CB01B6
:10173000642FF0D0C801DF91CF911F910F91FF90DE
:10174000EF90DF90CF900895DF93CF930F92CDB7B6
:10175000DEB7FC0169838091E9038823B9F08091A9
:10176000E803803228F081E0828320E030E014C07A
:101770008091E703E82FF0E0E953FC4F99819083D3
:101780008F5F8093E7038093E80304C0CE01019646
:1017900061E0C0D021E030E0C9010F90CF91DF912E
:1017A00008958091C60367EC73E04091E80321E05F
:1017B0006ED01092E7031092E8031092E9030895A7
:1017C000413208F040E2862F64EA73E029D010929B
:1017D000C4038093C50308951092C4031092C503F7
:1017E0001092E7031092E80300C01092F203599A96
:1017F000E0EBF0E080818F7D8083589A84B58F7D07
:1018000084BDE9EBF0E080818E7F808380818D7FD5
:10181000808388E48093B80085E48093BC000895B9
:10182000982F413210F040E030C08091F2038823BD
:10183000E1F781E08093F2038FEF80935D041092D3
:1018400018044150409319044F5F990F9160909391
:10185000F30385EE8093BC008091F2038130E1F3C5
:1018600080911804841710F44091180420E030E0AF
:101870000AC0FB01E20FF31FD901A850BC4F8C91A5
:1018800080832F5F3F4F2417A0F3842F08951F9369
:10189000582F122F413210F081E03AC08091F203AC
:1018A0008823E1F782E08093F2038FEF80935D0459
:1018B0001092180440931904A8EFB3E0FB0102C092
:1018C00081918D938E2F861B8417D0F3852F90E006
:1018D000880F991F8093F30385EE8093BC0011233A
:1018E00021F08091F2038230E1F380915D048F3F1B
:1018F00011F480E00DC080915D04803211F482E02B
:1019000007C080915D04803311F084E001C083E062
:101910001F910895482F613210F081E00895809161
:10192000F203843011F082E0089560933B04AAE151
:10193000B4E0842F9C01F90102C081918D938E2F18
:10194000841B8617D0F380E008951F920F920FB684
:101950000F9211242F933F934F935F936F937F9335
:101960008F939F93AF93BF93EF93FF938091B900B1
:1019700090E0887F90708036910509F4DCC0813654
:101980009105CCF58832910509F47BC08932910527
:10199000B4F48031910509F46FC0813191053CF4B4
:1019A000009709F431C1089709F039C165C0883141
:1019B000910509F466C0809709F031C17DC080347B
:1019C000910509F49FC08134910544F48033910559
:1019D00009F47DC0C89709F022C184C08035910503
:1019E00009F484C08835910509F491C088349105C3
:1019F00009F015C198C08839910509F4FDC08939ED
:101A00009105ECF48837910509F495C08937910563
:101A10004CF48836910509F48EC08037910509F0A1
:101A2000FEC089C08838910509F4E6C08039910567
:101A300009F487C08038910509F0F1C082C0803B6D
:101A4000910509F4B0C0813B91054CF4803A9105B1
:101A500009F489C0883A910509F0E1C0A4C0803C2E
:101A6000910509F4CDC0883C910509F4C9C0883BB3
:101A7000910509F0D4C0ACC08091F3038093BB0002
:101A8000B9C09091180480911904981768F4909146
:101A90001804E92FF0E0E850FC4F80818093BB00F0
:101AA0009F5F90931804A6C085ED8093BC00809141
:101AB000BC0084FDFCCFB1C080E280935D0485ED65
:101AC0008093BC008091BC0084FDFCCFA6C080E365
:101AD00080935D0485ED8093BC008091BC0084FD03
:101AE000FCCF9BC088E380935D048AC0809118047A
:101AF0009091BB00E82FF0E0E850FC4F90838F5F9F
:101B000080931804909118048091190471C08091F9
:101B100018049091BB00E82FF0E0E850FC4F908350
:101B20008F5F8093180485ED8093BC008091BC008A
:101B300084FDFCCF72C083E08093F20310925C04BA
:101B400059C080915C04803208F056C080915C04DA
:101B50009091BB00E82FF0E0E45CFB4F90838F5F37
:101B600080935C0447C080915C04803230F4E09143
:101B70005C04F0E0E45CFB4F108285ED8093BC00D8
:101B80008091BC0084FDFCCF1092F20360915C0454
:101B9000E091F603F091F7038CE394E070E009958F
:101BA00010925C042DC084E08093F20310923A04FA
:101BB00010923B04E091F403F091F50309958091B4
:101BC0003B04882329F481E080933B0410921A049B
:101BD00090913A04E92FF0E0E65EFB4F808180931C
:101BE000BB009F5F90933A0490913A0480913B042C
:101BF000981710F485EC01C085E88093BC000FC0F5
:101C000085EC8093BC0009C010925D0485ED809343
:101C1000BC008091BC0084FDFCCF1092F203FF91C8
:101C2000EF91BF91AF919F918F917F916F915F9154
:101C30004F913F912F910F900FBE0F901F901895CD
:101C4000EF92FF920F931F937C018B01DC01ED91CA
:101C5000FC91A081B1816F772D913C91CF01F90169
:101C60000995D701ED91FC91A081B181000F012F61
:101C7000001F110B0F772D913C91CF01602FF901BF
:101C800009951F910F91FF90EF900895FC0101902D
:101C9000F081E02DA081B1812D913C91CF0160EFC9
:101CA000F90109950895FC010190F081E02DA081D2
:101CB000B1812D913C91CF0167EFF901099508950C
:101CC0000F931F938C01DC01ED91FC91A081B181F8
:101CD0002D913C91CF0169EFF9010995D801ED9162
:101CE000FC91A081B1812D913C91CF0162E0F9017D
:101CF0000995D801ED91FC91A081B1812D913C9184
:101D0000CF0163E0F90109951F910F9108951F9389
:101D1000CF93DF93EC018A818823B1F1CE01B6DF46
:101D2000E881F981A081B1812D913C91CF0169E7D2
:101D3000F9010995E881F981A081B1812B813C816C
:101D40004D915C91CF01F9016081FA010995E8811B
:101D5000F981A081B1812B813C814D915C91CF01B2
:101D6000F9016181FA01099512E009C0EB81FC815A
:101D7000E10FF11D6081CE0170E062DF1F5F8A819B
:101D80001817A0F3CE018FDFDF91CF911F91089537
:101D9000FC01A081B181ED91FC9111970480F58146
:101DA000E02DCD0109950895EF92FF920F931F93B7
:101DB0008C017A01DC01ED91FC91A081B1816F7001
:101DC000606E2D913C91CF01F9010995C801B701D1
:101DD00037DF1F910F91FF90EF900895EF92FF92E0
:101DE0000F931F937C018A01DC01ED91FC91A0818E
:101DF000B1816F7060692D913C91CF01F901099516
:101E0000D701ED91FC91A081B181602F6F772D9169
:101E10003C91CF01F9010995D701ED91FC91A08189
:101E2000B181000F012F001F110B2D913C91CF01AB
:101E3000602FF90109951F910F91FF90EF90089580
:101E4000DF92EF92FF920F931F93CF93DF93EC01FA
:101E5000162FD42E022FF32E19DFE881F981A081ED
:101E6000B1812D913C91CF01612FF9010995202F6E
:101E70003F2DC9017C0110E007C0F70161917F018E
:101E8000CE0170E0DDDE1F5F1D15B8F3CE010BDF64
:101E9000DF91CF911F910F91FF90EF90DF90089508
:101EA000FC01603DA9F0613D28F4603959F0603CC7
:101EB000A1F40BC0603E19F0643F79F40CC054A744
:101EC00043A7089556A745A7089550AB47A708957F
:101ED00052AB41AB089554AB43AB0895FC016F3F47
:101EE00011F456AB45AB0895FC0152AF41AF0895D4
:101EF000FC01158216821782DC0180E018961C9284
:101F000018978F5F11968032C9F710A612A611A6F6
:101F100005A8F6A9E02D309709F009950895FC0170
:101F2000718360831282E4CF8EE594E068EA74E006
:101F3000F6CF9F92AF92BF92CF92DF92EF92FF9235
:101F40000F931F93CF93DF93EB01569A9924590176
:101F5000CC24B7FCC094DC2C7A010027F7FC009558
:101F6000102F09C0C601B5012FD45E9AC801B70170
:101F70002BD45E989394892D90E08C179D0794F351
:101F8000DF91CF911F910F91FF90EF90DF90CF9055
:101F9000BF90AF909F9008950F931F938C01569A16
:101FA00062E070E048E250E022ED30E0C2DF6AEF2C
:101FB00070E080E090E008D4C80163E070E048E29F
:101FC00050E022ED30E0B5DF6DE770E080E090E0BA
:101FD000FBD31F910F9108959A01FA0101900020FF
:101FE000E9F73197E41BF50B4E2F2ACFAB0161E7E0
:101FF000F3CF1F93CF93DF93EC018885813729F0CE
:10200000893779F5CE0183DE35C08FA998AD892B4C
:1020100089F189A59AA5019762E070E00E9456199E
:10202000162F862F90E068D1AC01DC0121E030E072
:1020300011C0FE01E20FF11D90859C932F5FFE0100
:10204000E20FF11D8085879588278795890F8D93ED
:102050002F5F3F5F311768F3EFA9F8ADCA0109950B
:1020600009C0E9ADFAAD309729F069A5615029960C
:10207000AE010995DF91CF911F910895CF93DF9322
:10208000EC01A881B981ED91FC9111970680F7814F
:10209000E02DCD010995AC0188A5882389F0473F43
:1020A000510521F418A6CE01A4DF91C089A59AA5F7
:1020B000FE01E80FF91F408701969AA789A787C0FC
:1020C0008D81882309F446C0403851050CF042C088
:1020D00081508D83FE01E80FF11D4087882309F0B0
:1020E00076C08E81882309F472C0803D49F1813D1C
:1020F00028F4803959F0803C59F51FC0803E19F012
:10210000843F31F513C0EBA5FCA502C0EDA5FEA5EB
:102110003097F1F0688570E07695762F6627779591
:1021200067958985680F711D8F8111C0EBA9FCA986
:10213000309771F06885898509C0EFA5F8A902C0BC
:10214000E9A9FAA9309721F068858F8170E0099597
:102150001E823DC0403F510514F09A0106C09A010D
:10216000207F3070842F8F708F83203E3105F1F0F7
:10217000213E310554F4203C3105D1F0203D31059C
:10218000B9F02039310519F511C0243F310571F03E
:10219000253F310524F4203F3105C9F40DC0293F06
:1021A000310591F02F3F310591F40BC082E001C061
:1021B00081E08D832E830BC081E088A71AA619A623
:1021C00006C0CE0195DE03C08EE594E079DDDF9197
:1021D000CF910895AF92BF92CF92DF92EF92FF928C
:1021E0000F931F93CF93DF938C01D62EC72EB42E5F
:1021F000A22E862F972F6EEF71E00E943001EC0126
:102200008D2D9C2D6FE270E00E942501209779F0C2
:102210007C010894E11CF11CE114F10441F09E01E1
:102220002E5F822F8E19D80112968C930FC0AD2D80
:10223000BC2DFD0101900020E9F7ED19EF5FD801F9
:102240001296EC932D2D3C2DC9017C01F801828161
:1022500090E052D0FC01D80114969C938E93139772
:1022600012968C911297E80FF11D10821396ED9142
:10227000FC911497B0821396ED91FC911497A18272
:1022800013968D919C91149712964C9150E0425068
:1022900050400296B7010E941601DF91CF911F9125
:1022A0000F91FF90EF90DF90CF90BF90AF90089587
:1022B0000F931F938C0188EA94E034D7D801ED91F5
:1022C000FC918091AA0482838091AB049091AC042C
:1022D000A091AD04B091AE0483839483A583B683AB
:1022E0008091AF048783C80157DEC801E9DCC801CB
:1022F0000EDD1F910F9108950F931F93CF93DF93DE
:10230000BC018230910510F462E070E0E091B2040B
:10231000F091B304A0E0B0E040E050E024C0808140
:10232000918186179707D0F08617970771F48281FD
:102330009381109729F013969C938E9312972CC03B
:102340009093B3048093B20427C04115510519F04E
:102350008417950718F4EF018D01AC01DF0182812C
:1023600093819C01F9013097D1F641155105F9F09F
:10237000CA01861B970B8430910580F48A819B816A
:102380000115110521F0F8019383828304C0909315
:10239000B3048093B204FE0132962FC0FE01E80F11
:1023A000F91F6193719302979983888326C08DB733
:1023B0009EB7885790402091060230910702281757
:1023C0003907C8F4AC01421B530B4617570798F066
:1023D000CB0102964817590770F0820F931F909314
:1023E00007028093060290939A0480939904F9015E
:1023F0006193719302C0E0E0F0E0CF01DF91CF91F3
:102400001F910F910895382F8652883010F4382F7D
:1024100002C0383068F420917E0081E090E0032E05
:1024200002C0880F991F0A94E2F7282B20937E00A0
:102430003F7180910802832B80937C0080917A0009
:10244000806480937A0080917A0086FDFCCF209191
:10245000780040917900942F80E030E0282B392BD0
:10246000C90108958E3270F4E8E9F0E0880FE80FB2
:10247000F11D9591E491F0E02FB7F8948181892BBB
:1024800081832FBF08958E3228F5982F9652983069
:1024900020F0A0E0B0E03FEF08C0E4EFF0E0990FDB
:1024A000E90FF11DA591B0E03591E8E9F0E0880F62
:1024B000E80FF11D9591E491F0E02FB7F894818138
:1024C0009095892381838281892382838C918323C0
:1024D0008C932FBF0895002039F000C0EE3250F4E5
:1024E000EE0FE558FD4E0994EE3220F4EE0FE9525E
:1024F000FD4E09940895589AB6C0599AD0C05A9A78
:1025000008955B9A08955C9A08955D9A08955E9A7D
:1025100008955F9A0895709A0895719A0895409A5F
:102520000895419A0895429A0895439A0895449AC5
:10253000C8C0459AC0C0469AB8C0479A0895769ACE
:102540000895779A0895289A0895299A08952A9ABD
:1025500008952B9A08952C9A9CC02D9A88C02E9A83
:102560008CC02F9A90C0109A0895119A0895129ACB
:102570000895139A0895149A0895159A0895169A2D
:102580000895179A0895749A0895759A0895889AE7
:102590000895899A08958A9A08958B9A08958C9A35
:1025A00008958D9A08958E9A08958F9A089558984F
:1025B0005AC0599874C05A9808955B9808955C98C9
:1025C00008955D9808955E9808955F9808957098AD
:1025D00008957198089540980895419808954298F3
:1025E00008954398089544986CC0459864C04698EF
:1025F0005CC047980895769808957798089528982C
:102600000895299808952A9808952B9808952C984C
:1026100040C02D982CC02E9830C02F9834C01098F0
:10262000089511980895129808951398089514988C
:102630000895159808951698089517980895749810
:1026400008957598089588980895899808958A98A6
:1026500008958B9808958C9808958D9808958E9874
:1026600008958F980895E4B5EF7DE4BD0895E09155
:102670008000EF77E09380000895E0918000EF7D87
:10268000E09380000895E0918000E77FE093800070
:102690000895E091B000EF77E093B0000895E091E5
:1026A000B000EF7DE093B0000895E0919000EF77E7
:1026B000E09390000895E0919000EF7DE09390000A
:1026C0000895E0919000E77FE093900008951DBA8F
:1026D000109268001CBC10BE1FBA10927A001092B3
:1026E0006E0010926F0010927000109271001092A4
:1026F000C9001092BC0011B814B817B81AB81DB8A8
:1027000010BA12B815B818B81BB81EB811BA089587
:10271000F89480E29EE40197F1F781E08093E00075
:1027200080E28093D80080E69AEE0197F1F7CFDF40
:102730000C94007EFFCFF894CADF80E69AEE0197F2
:10274000F1F70C940000FFCF8F938FB78F93809198
:10275000A3048D5F8D37D0F48093A30480919F04F0
:102760008F5F80939F04D8F08091A0048F4F809357
:10277000A004A8F08091A1048F4F8093A10478F069
:102780008091A2048F4F8093A20409C08D5780933B
:10279000A30480919F048E5F80939F0428F780910B
:1027A0009B048C5F80939B0458F080919C048F4F16
:1027B00080939C0428F080919D048F4F80939D040A
:1027C0008F918FBF8F9118959B01AC0114D0FB01A5
:1027D0000CC011D06E1B7F0B685E7340D0F321508C
:1027E000304040405040E851FC4F21153105410533
:1027F000510579F708950FB6F89466B515B2709142
:102800009B0480919C0490919D040FBE10FE05C016
:102810006F3F19F07C5F8F4F9F4F11240024660F8C
:10282000001C660F001C702908951F93CF93DF933F
:10283000182FEB0117DE103109F44FC0113160F48D
:10284000113009F442C01130A8F01E3009F455C00F
:102850001F3009F05CC049C01931B9F01A3120F4B9
:10286000183109F054C02BC01A31B9F01B3109F0EE
:102870004EC01DC0209721F4589884B58F7D03C0A9
:10288000C8BD84B5806284BD4AC0D0938900C0931E
:10289000880080918000806807C0D0938B00C0932F
:1028A0008A008091800080628093800038C0D0933D
:1028B0008D00C0938C00809180008860F5CFC0931C
:1028C000B3008091B000806805C0C093B4008091CF
:1028D000B00080628093B00022C0D0939900C09372
:1028E00098008091900080680FC0D0939B00C093A7
:1028F0009A0080919000806207C0D0939D00C093A1
:102900009C008091900088608093900008C0E12F27
:10291000F0E0C038D10514F4E7DD01C0DFDDDF9160
:10292000CF911F910895F894E1E6F0E020E820832C
:10293000108283E084BD85BDEEE6F0E08081816099
:10294000808391E09093800082E080938100909357
:10295000B0008093B100909390008093910086E83E
:1029600080937A0020937B0010927E0002D07894AE
:1029700008958091D80087FF02C085FF1BC081E8C1
:102980008093D70080EA8093D8008AE189BD09B49A
:1029900000FEFDCF80E98093D8001092E0001092F5
:1029A000B4041092B5041092A7041092E1008DE0D7
:1029B0008093E20008951F920F920FB60F92112498
:1029C0002F933F934F935F936F937F938F939F9337
:1029D000AF93BF93EF93FF931092E9008091E800CB
:1029E00083FF57C12091F1009091F1004091F100D7
:1029F0005091F1006091F1007091F100A091F1000F
:102A0000B091F10082EF8093E800963009F044C065
:102A1000E4E0F1E020E0859195918417950711F0AD
:102A2000359617C0859195918617970711F03396C3
:102A300010C0259135914491CD01AF3FB10519F0FA
:102A400010F08FEF90E0841708F4482FF9015EEF43
:102A500004C02F5F2630F9F61CC18091E800282FB2
:102A600030E0C90185709070892BB9F322FD14C143
:102A7000242F413208F020E2922F04C085918093E8
:102A8000F10091509923D1F7421B5093E800442361
:102A900021F7203211F300C1953061F48EEF80935D
:102AA000E8008091E80080FFFCCF842F806880934D
:102AB000E300F2C0993009F5222309F0EAC04093FF
:102AC000B4041092A7041092A4048EEF8093E8003F
:102AD000EEE2F1E091E09093E90085918093EB00C4
:102AE000882331F085918093EC0085918093ED00EF
:102AF0009F5F953081F78EE1C7C0983061F4203830
:102B000009F0C7C08091E80080FFFCCF8091B40439
:102B10008093F10096C09132A9F4213A09F0B9C02E
:102B20008091E80080FFFCCF20E030E0F901E75F12
:102B3000FD4F80818093F1002F5F3F4F273031059B
:102B4000A9F77FC0903209F04BC0213209F0A1C033
:102B50008091E80082FFFCCF20E030E0F901E75FE0
:102B6000FD4F8091F10080832F5F3F4F273031056B
:102B7000A9F78BEF8093E8008EEF8093E8008091B7
:102B8000090290910A02A0910B02B0910C028638C2
:102B90009105A105B10519F48FE08093A5048091FA
:102BA000090290910A02A0910B02B0910C028639A1
:102BB0009105A105B10509F06FC084E08093E9009B
:102BC0002FEF06C02093E8008091E80082FDFCCF43
:102BD0008091EE0090E083709070892B99F7ABDDC7
:102BE000923251F4213209F054C04093A7048091ED
:102BF000E80080FFFCCF25C0933241F4213209F078
:102C000048C08091E80080FFFCCF1BC09923E9F405
:102C10008091E80080FFFCCF223811F080E00DC0E9
:102C20006093E9008091EB0090E025E09695879510
:102C30002A95E1F781701092E9008093F1001092DB
:102C4000F1008EEF8093E80027C0913011F09330AF
:102C500001F52230F1F4452BE1F4262F2F77822F56
:102C600081508630B0F48EEF8093E8002093E90025
:102C7000933079F089E18093EB0081E090E002C02D
:102C8000880F991F2A95E2F78093EA001092EA00D4
:102C900003C081E28093EB00FF91EF91BF91AF9170
:102CA0009F918F917F916F915F914F913F912F9164
:102CB0000F900FBE0F901F9018951F920F920FB696
:102CC0000F9211242F933F934F935F936F937F93B2
:102CD0008F939F93AF93BF93EF93FF938091E10006
:102CE0001092E100982F83FF11C01092E90081E05B
:102CF0008093EB001092EC0082E28093ED0088E07C
:102D00008093F0001092B4041092A70492FF1DC0AB
:102D10008091B4048823C9F08091A404882359F0D9
:102D200081508093A404882331F484E08093E900E7
:102D30008AE38093E8008091A504882331F08150D4
:102D40008093A504882309F4E3DC90FF0CC080E1A4
:102D50008093E2001092B40481E08093B50480EA8D
:102D60008093D80019BC8091B504882379F094FF32
:102D70000DC08AE189BD09B400FEFDCF80E98093D2
:102D8000D8008DE08093E2001092B504FF91EF919E
:102D9000BF91AF919F918F917F916F915F914F9173
:102DA0003F912F910F900FBE0F901F901895BBDD94
:102DB0000E94C5030E94BE05FDCFFC019FB7F89499
:102DC0008091B404882311F420E010C083E0809344
:102DD000E9002091F200222349F48091E80082FF6B
:102DE00005C085FD03C08BE68093E8009FBF80850A
:102DF000918597FD03C02F3F09F02F5F822F90E050
:102E00000895CF93DF93EC018885998597FF09C0DA
:102E1000E881F9810680F781E02DCE010995998737
:102E2000888788859985DF91CF910895FC01208559
:102E3000318537FD05C08FEF9FEF9187808722C0D6
:102E40002FB7F8948091B404882369F083E08093CD
:102E5000E9009BE68091E80085FD09C082FF03C080
:102E60009093E800F7CF2FBF2FEF3FEF0CC090916A
:102E7000F1008091E80085FD03C08BE68093E800B7
:102E80002FBF292F30E0C9010895FC018091B404BF
:102E9000882371F09FB7F89483E08093E9002BE6D4
:102EA00002C02093E8008091E80085FDFACF9FBF23
:102EB0008FEF9FEF9187808708956F927F928F9217
:102EC0009F92AF92BF92CF92DF92EF92FF920F93B9
:102ED0001F93CF93DF933C018B018091B40488232F
:102EE00029F481E0D30112968C9311C03FB7F89476
:102EF00084E08093E9008091A604882369F08091A2
:102F0000E80085FD07C03FBF81E0E3018A83882494
:102F10009924DAC01092A6048824992474E0A72E7C
:102F200060E4B62E21EFE22EF12C9AE3C92E83E065
:102F3000D82EC5C09091E400915F8091E80085FD96
:102F400019C03FBF8091E400891731F481E080937C
:102F5000A604F3018283B8C08091B404882329F4C5
:102F600081E0D30112968C93AFC03FB7F894A09242
:102F7000E900E3CF8091F2002B2D281B822F90E0F7
:102F80004817590708F4242F622F70E0E801D70191
:102F9000E0E4E21BE03428F4EE0FFF27EE52F84E97
:102FA000099480C089918C9389918C9389918C9399
:102FB00089918C9389918C9389918C9389918C932D
:102FC00089918C9389918C9389918C9389918C931D
:102FD00089918C9389918C9389918C9389918C930D
:102FE00089918C9389918C9389918C9389918C93FD
:102FF00089918C9389918C9389918C9389918C93ED
:1030000089918C9389918C9389918C9389918C93DC
:1030100089918C9389918C9389918C9389918C93CC
:1030200089918C9389918C9389918C9389918C93BC
:1030300089918C9389918C9389918C9389918C93AC
:1030400089918C9389918C9389918C9389918C939C
:1030500089918C9389918C9389918C9389918C938C
:1030600089918C9389918C9389918C9389918C937C
:1030700089918C9389918C9389918C9389918C936C
:1030800089918C9389918C9389918C9389918C935C
:1030900089918C9389918C9389918C9389918C934C
:1030A00089918C938E018091E80085FD02C0C092C9
:1030B000E800461B570B860E971ED092A4044115BC
:1030C000510509F037CF3FBFC401DF91CF911F9168
:1030D0000F91FF90EF90DF90CF90BF90AF909F90B7
:1030E0008F907F906F900895E8EAF4E08AE0DF0126
:1030F0001D928A95E9F71092AA0488EE93E0A0E069
:10310000B0E08093AB049093AC04A093AD04B09373
:10311000AE041092AF0484E292E09093A9048093ED
:10312000A80408952FEF3FEFFC013187208721DCB1
:103130000FB6F89480919F049091A004A091A104EF
:10314000B091A2040FBEAC018091B404882329F091
:1031500068EC70E080E090E037CB8091B504882384
:1031600009F10FB6F89480919F049091A004A0916A
:10317000A104B091A2040FBE9C0110C00FB6F89438
:1031800080919F049091A004A091A104B091A20409
:103190000FBE821B930B8B3F9105A8F48091B50461
:1031A000882361F70FB6F89480919F049091A00452
:1031B000A091A104B091A2040FBE841B950B855C65
:1031C000994008F4C1CF08952F923F924F925F9299
:1031D0006F927F928F929F92AF92BF92CF92DF9227
:1031E000EF92FF920F931F93DF93CF93CDB7DEB78C
:1031F0003B014C0119012A016D897E898F89988DC7
:103200006A197B098C099D09621A730A840A950A56
:10321000A401930120D0E218F30804091509A801BC
:10322000970179D02A0D3B1D4C1D5D1DB901CA01C6
:10323000CF91DF911F910F91FF90EF90DF90CF9092
:10324000BF90AF909F908F907F906F905F904F90C6
:103250003F902F900895629FD001739FF001829F4D
:10326000E00DF11D649FE00DF11D929FF00D839F15
:10327000F00D749FF00D659FF00D9927729FB00DB2
:10328000E11DF91F639FB00DE11DF91FBD01CF01C5
:1032900011240895991B79E004C0991F961708F02E
:1032A000961B881F7A95C9F78095089597FB092E7C
:1032B00007260AD077FD04D049D006D000201AF4A2
:1032C000709561957F4F0895F6F7909581959F4F82
:1032D0000895A1E21A2EAA1BBB1BFD010DC0AA1F57
:1032E000BB1FEE1FFF1FA217B307E407F50720F06F
:1032F000A21BB30BE40BF50B661F771F881F991FEA
:103300001A9469F760957095809590959B01AC0132
:10331000BD01CF01089597FB092E05260ED057FD5C
:1033200004D0D7DF0AD0001C38F450954095309572
:1033300021953F4F4F4F5F4F0895F6F79095809539
:10334000709561957F4F8F4F9F4F0895AA1BBB1BB0
:1033500051E107C0AA1FBB1FA617B70710F0A61B95
:10336000B70B881F991F5A95A9F780959095BC01B6
:10337000CD010895EE0FFF1F0590F491E02D099403
:04338000F894FFCFEF
:10338400556E6B6E6F776E2070696E206D6F64651D
:10339400002F7661722F666F6C646572732F303004
:1033A4002F30377439723030306830313030306318
:1033B40078717079737663636D3030307A39372F72
:1033C400542F6275696C6438323739343335393285
:1033D40034323430313138392E746D702F42726189
:1033E400696E776176654669726D6174612E63708A
:1033F40070004932432052656164204572726F72D5
:103404003A20546F6F206D616E7920627974657310
:1034140020726563656976656400493243205265AC
:103424006164204572726F723A20546F6F20666532
:103434007720627974657320726563656976656463
:103444000031302D6269742061646472657373693C
:103454006E67206D6F6465206973206E6F742079C8
:10346400657420737570706F7274656400746F6F27
:10347400206D616E792071756572696573002E63C4
:103484007070001300FFB6044000E1000000000863
:1034940000000000A40B740B2D0B360B4B0B5C0BC4
:1034A400000000004A015D17DD16161701174517C5
:00000001FF
