:1000000053C6000079C6000077C6000075C6000020
:1000100073C6000071C600006FC600006DC6000008
:100020006BC6000069C600000C948B3C0C94093B25
:1000300063C6000070C600005FC600005DC6000019
:100040005BC600000C94BF0D57C6000055C60000EB
:1000500053C6000051C600004FC600000C94BC36C9
:100060004BC6000049C6000047C6000045C6000058
:1000700043C6000041C600003FC600003DC6000068
:100080003BC6000039C6000037C6000035C6000078
:1000900033C6000031C60000084AD73B3BCE016E94
:1000A00084BCBFFDC12F3D6C74319ABD56833DDACF
:1000B0003D00C77F11BED9E4BB4C3E916BAAAABEDE
:1000C000000000803F05A84CCDB2D44EB93836A907
:1000D000020C50B9918688083CA6AAAA2ABE000044
:1000E00000803F2000200020002000200020004D44
:1000F00054454D503A0024F404D9201BC40C5C0E26
:100100009804C4095F0265077101F405F900FB0456
:10011000B30048048700C103690058035500030376
:100120004500BE023A008402310053022A0029022F
:10013000250004022000E4011C00C8011900AF01E1
:10014000170098011400840113007101100061016F
:10015000100051010E0043010D0036010B002B0170
:100160000B0020010B00150109000C01090003011F
:100170000800FB000800F3000800EB000700E400A3
:100180000600DE000600D8000600D2000600CC0003
:100190000500C7000500C2000500BD000400B9004D
:1001A0000400B5000400B1000400AD000400A90083
:1001B0000400A5000300A20003009F0004009B00B0
:1001C00003009800030095000200930003009000D4
:1001D00003008D0002008B000300880002008600EF
:1001E000020084000300810002007F0002007D0005
:1001F00002007B0002007900020077000100760017
:1002000002007400020072000100710002006F0021
:1002100002006D0001006C0002006A00010069002C
:100220000200670001006600010065000100640033
:1002300002006200010061000100600001005F0037
:1002400002005D0001005C0001005B0001005A003B
:10025000010059000100580001005700010056003C
:10026000010055000100540001005300000053003C
:1002700001005200010051000100500001004F0038
:1002800001004E0000004E0001004D0001004C0036
:1002900001004B0000004B0001004A000100490032
:1002A000010048000000480001004700010046002E
:1002B0000000460001004500000045000100440028
:1002C0000100430000004300010042000000420022
:1002D00001004100000041000100400001003F001A
:1002E00000003F0001003E0000003E0001003D0014
:1002F00000003D0001003C0000003C0000003C000C
:1003000001003B0000003B0001003A0000003A0001
:1003100001003900000039000100380000003800F9
:1003200000003800010037000000370001003600EF
:1003300000003600000036000100350000003500E6
:1003400000003500010034000000340000003400DB
:1003500001003300000033000000330001003200D0
:1003600000003200000032000100310000003100C6
:1003700000003100010030000000300000003000BB
:1003800001002F0000002F0000002F0000002F00B0
:1003900001002E0000002E0000002E0001002D00A4
:1003A00000002D0000002D0000002D0001002C0099
:1003B00000002C0000002C0000002C0001002B008D
:1003C00000002B0000002B0000002B0001002A0081
:1003D00000002A0000002A0000002A000100290075
:1003E0000000290000002900000029000000290069
:1003F000010028000000280000002800000028005C
:10040000000028000100270000002700000027004E
:100410000000270000002700010026000000260041
:100420000000260000002600000026000100250034
:100430000000250000002500000025000000250028
:10044000000025000100240000002400000024001A
:10045000000024000000240001002300000023000D
:100460000000230000002300000023000000230000
:1004700000002300010022000000220000002200F2
:1004800000002200000022000000220001002100E4
:1004900000002100000021000000210000002100D8
:1004A00000002100000021000100200000002000C9
:1004B00000002000000020000000200000002000BC
:1004C000000020000000200001001F0000001F00AD
:1004D00000001F0000001F0000001F0000001F00A0
:1004E00000001F0001001E0000001E0000001E0092
:1004F00000001E00000024F4D43050C38E20C2A29D
:100500004017828B7011127A910D816CD90AA86103
:10051000E108C7586607615143061E4B5D05C1459A
:10052000A7041A411104093D98037139310340367B
:10053000DB0265339102D4305402802E1D02632CFD
:10054000EE01752AC501B028A001102781018F2571
:1005500064012B244B01E0223401AC211F018D20CA
:100560000D01801FFC00841EED00971DDF00B81CEC
:10057000D200E61BC600201BBC00641AB200B219F0
:10058000A8000A19A0006A189900D1179100401715
:100590008B00B516840031167E00B31579003A152C
:1005A0007300C7146F0058146A00EE1366008813B6
:1005B000630025135E00C7125B006C125700151212
:1005C0005400C111510070114F0021114B00D61081
:1005D00049008D1047004610440002104200C00F31
:1005E0004000800F3E00420F3C00060F3B00CB0E48
:1005F0003800930E37005C0E3500270E3400F30DE3
:100600003200C10D3100900D3000600D2E00320D12
:100610002D00050D2C00D90C2B00AE0C2900850CEB
:1006200029005C0C2700350C27000E0C2600E80B77
:100630002400C40B2400A00B23007D0B23005A0BC5
:100640002100390B2100180B2000F80A1F00D90ADD
:100650001E00BB0A1E009D0A1D00800A1D00630AC1
:100660001C00470A1B002C0A1B00110A1A00F7097C
:100670001A00DD091900C4091900AB091900920913
:1006800017007B091800630917004C09160036098A
:100690001600200916000A091500F5081500E008E3
:1006A0001400CC081400B8081400A4081400900822
:1006B00013007D0812006B0813005808120046084A
:1006C000120034081100230811001208110001085B
:1006D0001100F0071000E0071000D0071000C0075D
:1006E0001000B0070F00A107100091070E0083074C
:1006F0000F0074070F0065070E0057070E0049072B
:100700000E003B070D002E070E0020070D001307FB
:100710000D0006070D00F9060C00ED060D00E006C1
:100720000C00D4060C00C8060C00BC060C00B00679
:100730000C00A4060B0099060C008D060B00820627
:100740000B0077060B006C060B0061060A005706CB
:100750000B004C060A0042060A0038060A002E0664
:100760000A0024060A001A060A00100609000706F5
:100770000A00FD050900F4050900EB050900E20582
:100780000900D9050900D0050900C7050900BE0503
:100790000900B5050800AD050800A50509009C0580
:1007A0000800940508008C050800840508007C05F5
:1007B0000800740508006C050700650508005D0564
:1007C0000700560508004E050700470507004005CD
:1007D000080038050700310507002A050700230532
:1007E00007001C050600160507000F050700080591
:1007F000060002050700FB040600F5040700EE04EE
:100800000600E8040600E2040700DB040600D50445
:100810000600CF040600C9040600C3040600BD0498
:100820000600B7040600B1040500AC040600A604E7
:100830000600A00405009B04060095040500900432
:1008400006008A04050085040500800406007A0479
:10085000050075040500700405006B0405006604BE
:100860000500610405005C040500570405005204FE
:1008700005004D04050048040500430405003E043E
:1008800004003A04050035040500300404002C047B
:10089000050027040400230405001E0404001A04B4
:1008A000040016040500110404000D0404000904EA
:1008B00005000404040000040400FC030400F80321
:1008C0000400F4030400F0030400EC030400E80354
:1008D0000400E4030400E0030400DC030400D80384
:1008E0000400D4030400D0030400CC030400C803B4
:1008F0000300C50303006F6B0D0A00526573656E3C
:10090000643A006F6B0D0A004572726F723A204EA6
:100910006F204C696E65204E756D62657220776937
:10092000746820636865636B73756D2C204C61730C
:1009300074204C696E653A004572726F723A204EAF
:100940006F20436865636B73756D207769746820E9
:100950006C696E65206E756D6265722C204C6173DA
:1009600074204C696E653A004572726F723A20636A
:100970006865636B73756D206D69736D6174636811
:100980002C204C617374204C696E653A005365727B
:1009900069616C204572726F723A204C696E6520F5
:1009A0004E756D626572206973206E6F74204C61A4
:1009B0007374204C696E65204E756D6265722B31C3
:1009C0002C204C617374204C696E653A00556E6B37
:1009D0006E6F776E20636F6D6D616E643A0D0A0005
:1009E000467265652052616D3A20000D0A007A5FFB
:1009F0006D696E3A00795F6D696E3A00785F6D6976
:100A00006E3A00453A005A3A00593A00583A000DF9
:100A10000A0030303030303030302D303030302D32
:100A2000303030302D303030302D303030303030CC
:100A3000303030303030004649524D574152455FDA
:100A40004E414D453A20537072696E74657220456F
:100A500078706572696D656E74616C2050524F5488
:100A60004F434F4C5F56455253494F4E3A312E300B
:100A7000204D414348494E455F545950453A4D65D4
:100A80006E64656C2045585452554445525F434F3F
:100A9000554E543A310D0A0020423A00543A00545F
:100AA0003A0020423A0020403A006F6B20543A004E
:100AB000202F2000506C616E2042756666657220A2
:100AC00053697A653A00467265652052616D3A2035
:100AD00000537465707065722054696D6572206989
:100AE0006E69740D0A00506C616E6E657220496EFD
:100AF00069740D0A00536F66742050574D20496E7B
:100B000069740D0A0073746172740D0A000D0A0095
:100B1000312E332E313154202F2031392E30332EC7
:100B20003230313200537072696E7465720D0A0092
:100B3000012902290429082910292029402980296E
:100B4000012C022C01260226042608261026202627
:100B500040268026402C802C0123022304230823D6
:100B6000102320234023802301200220042008207A
:100B70001020202040208020102C202C012F022F1C
:100B8000042F082F102F202F402F802F7EFE7EFD58
:100B90007EFB7EF77EEF7EDF7EBF7E7F0001000062
:100BA000D00B1200020000E20B4300030000250CF2
:100BB0000401030904290C1802030904430C160359
:100BC0000309045B0C0C0001C1020180360181366F
:100BD0001201000202000020C0168304000101027D
:100BE000030109024300020100C0320904000001B0
:100BF0000202010005240010010524010001042463
:100C000002060524060001070582030800400904C6
:100C10000100020A0000000705030240000007056A
:100C200084024000000403090418035400650065B1
:100C3000006E00730079006400750069006E006F3B
:100C400000000016035500530042002000530065C9
:100C5000007200690061006C0000000C033100327A
:100C6000003300340035000000494E46494E4954D7
:100C7000594E414ECDCCCC3D0AD7233C17B7D13885
:100C800077CC2B329595E6241FB14F0A0000204106
:100C90000000C84200401C4620BCBE4CCA1B0E5A75
:100CA000AEC59D748307773A11241FBECFEFD0E104
:100CB000DEBFCDBF13E0A0E0B1E0ECE0FAE802C097
:100CC00005900D92AE39B107D9F71BE0AEE9B3E05C
:100CD00001C01D92AA36B107E1F71CE0C8EADCE0CA
:100CE00004C02297FE010E94FF41C43AD107C9F710
:100CF0000E9453370C94044583C981E087BB85E08B
:100D00008093B10092E09093B00080E88093B300AC
:100D10009093700008951F920F920FB60F921124B6
:100D20008F938091B403823028F4779814981092AE
:100D3000B60309C08091B4038E3F38F0779A149AB5
:100D400081E08093B60380E80AC08091B6038130C9
:100D500049F4779814981092B6038091B503809364
:100D6000B30020C0779A149A81E08093B6038091F3
:100D7000B4038E3F28F08DEF8093B30082E010C063
:100D80008091B403823028F482E08093B3008DEF29
:100D900007C08091B4038093B3008091B403809521
:100DA0008093B5038F910F900FBE0F901F901895F1
:100DB0000F931F93CF93DF938C01EB0181E030C041
:100DC000DF01AA0FBB1FAA0FBB1FAC0FBD1F1296DE
:100DD0006D917C911397601771070CF53197EE0FA9
:100DE000FF1FEE0FFF1FEC0FFD1F228133810190CB
:100DF000F081E02D021B130B8D919C918E1B9F0B9C
:100E0000621B730B9C01029FC001039F900D129FF8
:100E1000900D11240E9499416E0F7F1F16C08F5FA5
:100E2000E82FF0E0E417F5075CF2E417F50719F096
:100E300060E070E00AC041505040440F551F440F1D
:100E4000551FC40FD51F688179812FEF33E0261B12
:100E5000370BC901DF91CF911F910F910895CF9367
:100E6000DF939B01CFEFD3E0C81BD90B81E031C0EA
:100E7000DF01AA0FBB1FAA0FBB1FA20FB31F6D91EB
:100E80007C911197C617D7071CF53197EE0FFF1FFE
:100E9000EE0FFF1FE20FF31F208131810280F381EB
:100EA000E02DC21BD30B12968D919C9113978E1B34
:100EB0009F0B621B730B9C01C29FC001C39F900DCF
:100EC000D29F900D11240E9499416E0F7F1F17C071
:100ED0008F5FE82FF0E0E417F50754F2E417F50709
:100EE00019F060E070E00BC041505040440F551FB6
:100EF000440F551F240F351FF90162817381CB0107
:100F0000DF91CF9108950F931F9300E711E085E0E3
:100F100090E0B8014DE350E04BDF9093C60380931F
:100F2000C50383E191E0B8014DE350E041DF9093C8
:100F3000C8038093C7031F910F910895EF92FF920A
:100F40000F931F938C01AB01662757FD6095762F99
:100F50000E9401387C01C8010E945837E80EF91E32
:100F6000C7011F910F91FF90EF9008958F929F926C
:100F7000AF92BF92CF92DF92EF92FF920F931F93A7
:100F8000CF93DF930FB6F8948091550B9091560B49
:100F9000A091570BB091580B0FBE2091B003309128
:100FA000B1034091B2035091B303821B930BA40B86
:100FB000B50B8B3F9105A105B10508F497C00FB69D
:100FC000F8948091550B9091560BA091570BB091CE
:100FD000580B0FBE8093B0039093B103A093B2035C
:100FE000B093B30380916401823008F07FC08FEE2C
:100FF00090E099D50FB6F8944091550B5091560B4F
:101000006091570B7091580B0FBE8AE59BE02AE068
:1010100000E00E94743780916401882371F58DEEA1
:1010200090E081D58091A2039091A30360E771E0E5
:101030004DE350E014DFAC01662757FD6095762F35
:101040008AE59BE00E9401388BEE90E06CD54091E0
:10105000A0035091A103662757FD6095762F8AE57E
:101060009BE00E94013889EE90E05DD56091C3035A
:101070007091C4038AE59BE038C087EE90E053D5B9
:101080008091A6039091A70360E771E04DE350E0E3
:10109000E6DEAC01662757FD6095762F8AE59BE07A
:1010A0000E94013885EE90E03ED58091A403909196
:1010B000A50360E771E04DE350E0D1DEAC016627A7
:1010C00057FD6095762F8AE59BE00E94013883EEFC
:1010D00090E029D5669B05C08AE59BE06FEF70E044
:1010E00004C08AE59BE060E070E028DF0FB6F8946A
:1010F0008091550B9091560BA091570BB091580BC6
:101100000FBE2091A8033091A9034091AA035091EA
:10111000AB03821B930BA40BB50B845F9140A040E3
:10112000B04008F472C10FB6F8948091550B9091BD
:10113000560BA091570BB091580B0FBE8093A8038C
:101140009093A903A093AA03B093AB0387E00E94F6
:1011500043352FEF33E0281B390B3093A303209343
:10116000A20380910B0190910C018217930724F444
:1011700030930C0120930B0180910D0190910E0191
:101180002817390724F430930E0120930D01809124
:10119000C5039091C6038217930744F010929F03F2
:1011A00010929E031092A1031092A0038091C70396
:1011B0009091C8032817390744F010929F031092AA
:1011C0009E031092A1031092A003C90160E771E091
:1011D0004DE350E044DE5C01E090A003F090A103F9
:1011E0006701C81AD90AD092C203C092C103809085
:1011F000B9039090BA039093BA038093B903B601F0
:10120000882777FD8095982F2AE030E040E050E075
:101210000E947A41EB017093BC036093BB030027EB
:10122000F7FC0095102FC801B7012BEB30E040E030
:1012300050E00E947A41672F782F892F992787FDE8
:101240009A9581E06A3178071CF06FEF70E002C078
:101250006B517040C60FD71FD093C403C093C30314
:101260002EE1C216D10464F56091B7037091B80302
:101270006C0D7D1D81E06134780714F060E471E04D
:101280009B018EEF603C780714F420EC3EEF309326
:10129000B8032093B703B901882777FD8095982F6D
:1012A00024E030E040E050E00E94CE413093BE03A5
:1012B0002093BD03C20FD31FD093C403C093C303B5
:1012C000C601D7FE03C0909581959F4F8235910549
:1012D0001CF4E1E0F0E007C061E570E00E94994194
:1012E000CB01E5E0F0E08A30910534F069E070E090
:1012F0000E949941CB01329604970CF03196A818C0
:10130000B908B501882777FD8095982F3CE0660FD6
:10131000771F881F991F3A95D1F73E2F2227442720
:1013200037FD4095542F0E94CE41A9013093C00350
:101330002093BF038091C3039091C403480F591FAA
:101340004F3F510519F014F04FEF50E09A0157FF4D
:1013500002C020E030E03093C4032093C3038091A7
:101360009E0390919F03892B19F02093B40302C030
:101370001092B4030FB6F8948091550B9091560BD0
:10138000A091570BB091580B0FBE2091AC03309138
:10139000AD034091AE035091AF03821B930BA40B9E
:1013A000B50B88589341A040B04078F10FB6F8943F
:1013B0008091550B9091560BA091570BB091580B03
:1013C0000FBE8093AC039093AD03A093AE03B09394
:1013D000AF0386E00E9443352FEF33E0281B390B23
:1013E0003093A7032093A6038091A4039091A503B3
:1013F000281739073CF48091C5039091C60328173C
:10140000390714F4769801C0769ADF91CF911F9135
:101410000F91FF90EF90DF90CF90BF90AF909F9093
:101420008F9008952F923F924F925F926F927F928A
:101430008F929F92AF92BF92CF92DF92EF92FF92E4
:101440000F931F93DF93CF93CDB7DEB7CB55D0402B
:101450000FB6F894DEBF0FBECDBF4C012F967FAF05
:101460006EAF2F971A0160962FAF609761960FAFFE
:1014700061976296EFAE62976696ACAEBDAECEAEA9
:10148000DFAE6697E22EFF24EE0CFF1CEE0CFF1C75
:101490002A014E0C5F1C2D965FAE4EAE2D97D201E9
:1014A0004D905D906D907C90FC01EE0DFF1DC30191
:1014B000B20120813181428153810E94063D69AF92
:1014C0007AAF8BAF9CAF10E0000F111F000F111F00
:1014D000F101E00FF11F2B96FFAFEEAF2B97A0802D
:1014E000B180C280D380F401E00FF11FC601B501C5
:1014F00020813181428153810E94063D6DAB7EABDC
:101500008FAB98AF62962FAD6297E22FF0E0EE0FAF
:10151000FF1FEE0FFF1FD401AE0FBF1F2D913D9196
:101520004D915C9129962CAF3DAF4EAF5FAF29979F
:101530002F964EAD5FAD2F97E40FF51F608171813F
:101540008281938129962CAD3DAD4EAD5FAD29973B
:101550000E94053D69AB7AAB8BAB9CAB2F96AEADD1
:10156000BFAD2F971C968D919D910D90BC91A02D94
:1015700025968CAF9DAFAEAFBFAF2597D4011C961B
:101580002D913D914D915C911F9721962CAF3DAFD0
:101590004EAF5FAF2197A301920150582DA73EA7F0
:1015A0004FA758ABD601C501B05889A79AA7ABA7DA
:1015B000BCA72F96AEADBFAD2F97EA0EFB1EF7016D
:1015C000608171818281938129AD3AAD4BAD5CAD73
:1015D0000E94053D3B014C012F964EAC5FAC2F970E
:1015E000040D151DD8016D917D918D919C912DA9B2
:1015F0003EA94FA958AD0E94053D5B016C016DA548
:101600007EA58FA598A9A60195010E94B4407B01F3
:101610008C0169A57AA58BA59CA5A40193010E94C4
:10162000B4409B01AC01C801B7010E94053D1B01FC
:101630002C016DA57EA58FA598A9A40193010E94F8
:10164000B4407B018C0169A57AA58BA59CA5A60158
:1016500095010E94B4409B01AC01C801B7010E94F2
:10166000063D9B01AC01C201B1010E94793D5B01C5
:101670006C0120E030E040E050E00E94DF3D882334
:1016800054F4C601B5012BED3FE049EC50E40E9453
:10169000063D5B016C01E5968FADE597882351F01F
:1016A000C601B5012BED3FE049EC50E40E94053D39
:1016B0005B016C01C601B501E4962CAD3DAD4EADAC
:1016C0005FADE4970E94B44029A93AA94BA95CA94F
:1016D0005F770E94EF3F7B018C012FE632E143E808
:1016E0005AE30E94DF3D87FD04C2C801B7010E9492
:1016F000BC3E0E94533E78A76FA380E090E00E941A
:101700007F3E7B018C01C601B501A80197010E94B3
:10171000E63D6BA37CA38DA39EA369A97AA98BA99F
:101720009CA9A80197010E94E63D6F8F78A389A329
:101730009AA325966CAD7DAD8EAD9FAD2597219674
:101740002CAD3DAD4EAD5FAD21970E94053DA8018A
:1017500097010E94E63D6B8F7C8F8D8F9E8F6BA1D2
:101760007CA18DA19EA120E030E040E05FEB0E94D3
:10177000B4402BA13CA14DA15EA10E94B44020E049
:1017800030E040E85FE30E94063D6F8B788F898FE1
:101790009A8F62964FAC6297E42DF0E0EE0FFF1F38
:1017A000EE0FFF1FCE010196E80FF91F29966CACD2
:1017B0007DAC8EAC9FAC29976082718282829382CD
:1017C00021962CAD3DAD4EAD5FAD21972D873E8767
:1017D0004F87588B41E050E05A8B498B88246096A4
:1017E000BFAD6097AB2FB0E0AA0FBB1FAA0FBB1F06
:1017F000A80FB91F6896BFAFAEAF689761965FAC90
:101800006197452C5524440C551C440C551C480E1E
:10181000591E6A965FAE4EAE6A976C96FFAFEEAFFA
:101820006C972EC12AE0622E861421F09FE0792E5B
:10183000871411F40E946C2688E1982E98140CF4F9
:1018400046C06DA57EA58FA598A92BA13CA14DA151
:101850005EA10E94B4407B018C0169A57AA58BA58D
:101860009CA52F89388D498D5A8D0E94B4409B01CB
:10187000AC01C801B7010E94063D7B018C016DA53A
:101880007EA58FA598A92F89388D498D5A8D0E94E4
:10189000B4405B016C0169A57AA58BA59CA52BA121
:1018A0003CA14DA15EA10E94B4409B01AC01C601C8
:1018B000B5010E94053D6DA77EA78FA798AB8394C5
:1018C000C701D80189A79AA7ABA7BCA765C029897A
:1018D0003A89B90180E090E00E947F3E2BA13CA1B3
:1018E0004DA15EA10E94B4407B018C01C8010E9401
:1018F000E33D6B8B7C8B8D8B9E8BB701C8010E9467
:1019000017413B014C012D96AEADBFAD2D97ED902B
:10191000FD900D911C9117FB109517F910952B96C2
:10192000EEADFFAD2B972080318042805380C801FF
:10193000B7012B893C894D895E890E94B4405B01C7
:101940006C01C201B101A40193010E94B4409B014A
:10195000AC01C601B5010E94063D6DA77EA78FA709
:1019600098ABC801B701A40193010E94B4407B0168
:101970008C01C201B1012B893C894D895E890E948D
:10198000B4409B01AC01C801B7010E94053D69A7A5
:101990007AA78BA79CA7882469AD7AAD8BAD9CAD47
:1019A0002DA53EA54FA558A90E94063D6896AEAD4F
:1019B000BFAD68976D937D938D939C9313976DA99D
:1019C0007EA98FA998AD29A53AA54BA55CA50E9433
:1019D000063D6A96EEADFFAD6A97608371838283A0
:1019E00093836C96AEADBFAD6C976D917D918D91EB
:1019F0009C912F8D38A149A15AA10E94063D6C9659
:101A0000EEADFFAD6C9760837183828393836B8DA2
:101A10007C8D8D8D9E8D2D853E854F8558890E94AC
:101A2000063D5B016C01CB01D6018D879E87AF8798
:101A3000B88B00D000D069817A818B819C812D8107
:101A40003E814F815885E984FA840B851C85669612
:101A50004CAC5DAC6EAC7FAC6697ADB7BEB71196C3
:101A60004D925D926D927C9214970E941318E989B1
:101A7000FA893196FA8BE98B0F900F900F900F90A7
:101A800049885A886FA078A44614570408F4CACE2F
:101A900000D000D02F96AEADBFAD2F976D917D9148
:101AA0008D919C91139714962D913D914D915C9140
:101AB00017971896ED90FD900D911C911B971C9611
:101AC000AD90BD90CD90DC901F9766964CAC5DAC10
:101AD0006EAC7FAC6697ADB7BEB711964D925D9276
:101AE0006D927C9214970E9413180F900F900F9094
:101AF0000F90C55ADF4F0FB6F894DEBF0FBECDBFB3
:101B0000CF91DF911F910F91FF90EF90DF90CF90D9
:101B1000BF90AF909F908F907F906F905F904F900D
:101B20003F902F900895CF93DF93EC010AC0E0918E
:101B30005A0BF0915B0B0190F081E02D8AE59BE060
:101B40000995FE0121966491662389F7DF91CF9173
:101B500008950FB6F8948091550B9091560BA09173
:101B6000570BB091580B0FBE809375069093760675
:101B7000A0937706B093780686EF98E0D4CF1F92B3
:101B80000F920FB60F9211242F923F924F925F92B5
:101B90006F927F928F929F92AF92BF92CF92DF927D
:101BA000EF92FF920F931F932F933F934F935F9367
:101BB0006F937F938F939F93AF93BF93CF93DF9355
:101BC000EF93FF938091830690918406892B09F00F
:101BD0005DC19091810680918206981719F4C0E04A
:101BE000D0E014C08091820690E028E430E0829F2B
:101BF000E001839FD00D929FD00D1124C355D94F82
:101C0000C95BDF4F81E08883C754D040D0938406FE
:101C1000C0938306209709F433C11092A70610924F
:101C2000A8061092A9061092AA062BAD3CAD3093DF
:101C3000A6062093A50645E72133340718F020E3D4
:101C400035E704C05EE42132350730F0369527953C
:101C50003695279584E007C067E22131360730F0DA
:101C60003695279582E08093A00608C081E0809396
:101C7000A0062032310510F420E230E0B9016052B4
:101C8000704088E060307807E8F0472F50E0440F5C
:101C9000551F440F551F4A505F4F9A012E5F3F4F0B
:101CA000F901859194919C01AA27639FC001629FCD
:101CB000810D9A1F06948A1F9A1F1124FA014591DB
:101CC00054911EC0CB01969587958C7F8A509B4F6F
:101CD000FC0145915491FC01329625913491862F57
:101CE00090E087709070BC01269FC001279F900DE7
:101CF000369F900D1124A3E096958795AA95E1F75C
:101D0000481B590B4436510510F444E650E0CA0113
:101D1000A0E0B0E08093A1069093A206A093A30652
:101D2000B093A40650938900409388002FA938AD42
:101D300075E72133370718F020E335E704C08EE458
:101D40002132380730F0369527953695279584E06F
:101D500007C097E22131390730F03695279582E0A8
:101D60008093A00608C081E08093A0062032310550
:101D700010F420E230E0B90160527040E8E06030D9
:101D80007E07E8F0472F50E0440F551F440F551FC2
:101D90004A505F4F9A012E5F3F4FF9018591949110
:101DA0009C01AA27639FC001629F810D9A1F069420
:101DB0008A1F9A1F1124FA01459154911EC0CB012C
:101DC000969587958C7F8A509B4FFC014591549145
:101DD000FC01329625913491862F90E087709070A7
:101DE000BC01269FC001279F900D369F900D1124A6
:101DF00033E0969587953A95E1F7481B590B4436A1
:101E0000510510F444E650E05093AC064093AB0605
:101E100088899989AA89BB89B695A7959795879549
:101E2000B095A095909581959F4FAF4FBF4F8093F0
:101E3000850690938606A0938706B09388068093C4
:101E4000890690938A06A0938B06B0938C068093A4
:101E50008D0690938E06A0938F06B0939006809384
:101E6000910690939206A0939306B09394061092D5
:101E7000950610929606109297061092980606C044
:101E800080ED97E09093890080938800C09183064D
:101E9000D0918406209709F42CC388A180939906D9
:101EA00080FF25C05D98079902C080E01DC0809129
:101EB0009A068823C1F088819981AA81BB8118166E
:101EC00019061A061B067CF481E080939B0688891C
:101ED0009989AA89BB898093950690939606A093C9
:101EE0009706B093980681E080939A0601C05D9AA8
:101EF0008091990681FF25C07198069902C080E003
:101F00001DC080919C068823C1F08C819D81AE818B
:101F1000BF81181619061A061B067CF481E080930F
:101F20009D0688899989AA89BB8980939506909393
:101F30009606A0939706B093980681E080939C063E
:101F400001C0719A8091990682FF25C04398059936
:101F500002C080E01DC080919E068823C1F0888564
:101F60009985AA85BB85181619061A061B067CF4E6
:101F700081E080939F0688899989AA89BB8980938B
:101F8000950690939606A0939706B093980681E0E5
:101F900080939E0601C0439A8091990683FF23C0D7
:101FA0004798E0908506F09086060091870610918C
:101FB0008806A0908906B0908A06C0908B06D090C3
:101FC0008C0660908D0670908E0680908F069090A3
:101FD0009006209091063090920640909306509083
:101FE000940660E07BC0479ADCCF88819981AA8102
:101FF000BB81E80EF91E0A1F1B1F1E141F041006CA
:10200000110654F45B9A88899989AA89BB89E81AD0
:10201000F90A0A0B1B0B5B988C819D81AE81BF81F5
:10202000A80EB91ECA1EDB1E1A141B041C041D04B4
:1020300054F45F9A88899989AA89BB89A81AB90A30
:10204000CA0ADB0A5F9888859985AA85BB85680ED0
:10205000791E8A1E9B1E161417041804190454F4C2
:10206000419A88899989AA89BB89681A790A8A0A52
:102070009B0A41988C859D85AE85BF85280E391EAB
:102080004A1E5B1E121413041404150454F4459ADA
:1020900088899989AA89BB89281A390A4A0A5B0A58
:1020A00045988091950690919606A0919706B091DB
:1020B00098060196A11DB11D8093950690939606F2
:1020C000A0939706B0939806288939894A895B8935
:1020D00082179307A407B50730F46F5F8091A006BD
:1020E00068170CF482CFE0928506F0928606009382
:1020F000870610938806A0928906B0928A06C0923D
:102100008B06D0928C0660928D0670928E0680921D
:102110008F069092900620929106309292064092FD
:102120009306509294062091950630919606409120
:102130009706509198068C899D89AE89BF89821730
:102140009307A407B50708F4D1C0E090A106F0906A
:10215000A2060091A3061091A406AC8CBD8CCE8C77
:10216000DF8CA8019701C601B501AA27279FB12DD1
:10217000389FF001489FF00D479FE00DF11D289F0B
:10218000B00DE11DFA1F379FB00DE11DFA1F469FEC
:10219000B00DE11DFA1F369FB10DEA1FFA1FB6956B
:1021A000EA1FFA1F11248BAD9CAD8E0F9F1F9093D9
:1021B000A6068093A5062FA938AD49AD5AADA0E07B
:1021C000B0E0281739074A075B0724F43093A606C6
:1021D0002093A5062091A5063091A60675E7213328
:1021E000370718F020E335E704C08EE421323807C2
:1021F00030F0369527953695279584E007C097E20D
:102200002131390730F03695279582E08093A0067A
:1022100008C081E08093A0062032310510F420E24E
:1022200030E0B90160527040E8E060307E07E8F0CD
:10223000472F50E0440F551F440F551F4A505F4F22
:102240009A012E5F3F4FF901859194919C01AA2735
:10225000639FC001629F810D9A1F06948A1F9A1F77
:102260001124FA01459154911EC0CB019695879592
:102270008C7F8A509B4FFC0145915491FC01329612
:1022800025913491862F90E087709070BC01269F35
:10229000C001279F900D369F900D1124A3E09695C5
:1022A0008795AA95E1F7481B590B4436510510F460
:1022B00044E650E050938900409388009A0140E042
:1022C00050E08091A1069091A206A091A306B09142
:1022D000A406820F931FA41FB51F8093A10690939D
:1022E000A206A093A306B093A406E2C0888D998DA0
:1022F000AA8DBB8D82179307A407B50708F0D0C03D
:102300006091A7067091A8068091A9069091AA06EF
:102310002C8D3D8D4E8D5F8DAA27639FB12D749FAF
:10232000F001849FF00D839FE00DF11D649FB00DBF
:10233000E11DFA1F739FB00DE11DFA1F829FB00DC2
:10234000E11DFA1F729FB10DEA1FFA1FB695EA1F31
:10235000FA1F11248091A5069091A6068E179F075B
:1023600028F4EF9628813981EF9703C09C012E1B3A
:102370003F0BEF96488159816A817B81EF97C901B4
:10238000A0E0B0E084179507A607B7070CF49A0100
:1023900075E72133370718F020E335E704C08EE4F2
:1023A0002132380730F0369527953695279584E009
:1023B00007C097E22131390730F03695279582E042
:1023C0008093A00608C081E08093A00620323105EA
:1023D00010F420E230E0B90160527040E8E0603073
:1023E0007E07E8F0472F50E0440F551F440F551F5C
:1023F0004A505F4F9A012E5F3F4FF90185919491AA
:102400009C01AA27639FC001629F810D9A1F0694B9
:102410008A1F9A1F1124FA01459154911EC0CB01C5
:10242000969587958C7F8A509B4FFC0145915491DE
:10243000FC01329625913491862F90E08770907040
:10244000BC01269FC001279F900D369F900D11243F
:1024500023E0969587952A95E1F7481B590B44365A
:10246000510510F444E650E05093890040938800F1
:102470009A0140E050E08091A7069091A806A091B3
:10248000A906B091AA06820F931FA41FB51F8093BF
:10249000A7069093A806A093A906B093AA0608C021
:1024A0008091AB069091AC06909389008093880050
:1024B0002091950630919606409197065091980686
:1024C00088899989AA89BB89281739074A075B0730
:1024D00080F010928406109283069091810680917C
:1024E0008206981731F0809182068F5F8F708093FB
:1024F0008206FF91EF91DF91CF91BF91AF919F91B4
:102500008F917F916F915F914F913F912F911F918B
:102510000F91FF90EF90DF90CF90BF90AF909F9082
:102520008F907F906F905F904F903F902F900F9083
:102530000FBE0F901F901895A1E8B0E08C918F7E90
:102540008C938C9188608C93E0E8F0E080818D7FA3
:10255000808380818E7F808380818F738083808160
:102560008F7C80838C91887F82608C9380E090E464
:1025700090938900809388001092850010928400C7
:10258000EFE6F0E080818260808381E080936501E6
:1025900078940895EF92FF920F931F9347C02115EF
:1025A00031054105510571F010929F0310929E0371
:1025B00014981092A5031092A40376985C9A709ACE
:1025C000429A469A0FB6F8948091550B9091560B0B
:1025D000A091570BB091580B0FBE20917D06309102
:1025E0007E0640917F06509180068E199F09A00BB0
:1025F000B10B281739074A075B0748F42115310545
:102600004105510521F05C9A709A429A469A909140
:10261000820680918106981749F09091820602C047
:102620009F5F9F70809181069817D1F790918106E6
:1026300080918206981741F10E94B6070FB6F89470
:102640008091550B9091560BA091570BB091580B60
:102650000FBEE0907506F090760600917706109117
:1026600078062091790630917A0640917B06509148
:102670007C068E199F09A00BB10B281739074A0752
:102680005B0708F48CCF9ECF1F910F91FF90EF90C6
:1026900008956F927F928F929F92AF92BF92CF9246
:1026A000DF92EF92FF920F931F9339014A0120911D
:1026B00013013091140140911501509116010E94AF
:1026C000B4400E94844060932D0B70932E0B809336
:1026D0002F0B9093300BC401B3012091170130915F
:1026E00018014091190150911A010E94B4400E94B2
:1026F00084406093310B7093320B8093330B909333
:10270000340BC801B70120911B0130911C0140918D
:102710001D0150911E010E94B4400E9484406093AC
:10272000350B7093360B8093370B9093380BC601A3
:10273000B50120911F01309120014091210150915C
:1027400022010E94B4400E9484406093390B709330
:102750003A0B80933B0B90933C0B80E090E0A0E021
:10276000B0E080933D0B90933E0BA0933F0BB09352
:10277000400B8093410B9093420BA093430BB0937B
:10278000440B8093450B9093460BA093470BB0935B
:10279000480B8093490B90934A0BA0934B0BB0933B
:1027A0004C0B80934D0B90934E0BA0934F0BB0931B
:1027B000500B1F910F91FF90EF90DF90CF90BF9043
:1027C000AF909F908F907F906F9008958F929F927F
:1027D000AF92BF92CF92DF92EF92FF920F931F932F
:1027E000CF93DF93EC016B01009709F45CC08EA9D5
:1027F000882309F058C0EDA0FEA00FA118A5FB0189
:10280000B5A0A6A097A080A4C801B7012B2D3A2D92
:10281000492D582D0E94DF3D88230CF044C0C8018B
:10282000B701A80197010E94B4407B018C0169A9FE
:102830007AA98BA99CA9905820E030E040E050ECA8
:102840000E94B4402DA53EA54FA558A90E94B440B2
:102850009B01AC01C801B7010E94063D0E942141C5
:102860007B018C016B2D7A2D892D982D9701A80164
:102870000E94DF3D882324F4EB2CFA2C092D182D1F
:102880006B2D7A2D892D982D9701A8010E94DF3D8F
:10289000882349F0C701D801F60185A396A3A7A311
:1028A000B0A781E085ABDF91CF911F910F91FF9091
:1028B000EF90DF90CF90BF90AF909F908F90089552
:1028C000EF92FF920F931F93CF93DF93F0908206C6
:1028D00000E010E020E030E098E4E92E11C0FE9C1A
:1028E000E0011124C355D94FC901B801AE016EDF13
:1028F0008F2D8F5F803109F480E0F82E98018E01D2
:1029000080918106F81659F7C901B80140E050E0FE
:102910005DDFDF91CF911F910F91FF90EF900895B0
:10292000AF92BF92CF92DF92EF92FF920F931F93DD
:10293000CF93DF93EB018A016115710509F466C03D
:102940004115510509F462C0D9A4CAA4BBA4ACA422
:102950006DA17EA18FA198A52D2D3C2D4B2D5A2D1B
:102960000E94DF3D882309F451C08EA9882309F015
:1029700043C0F801E5A0F6A007A110A56D2D7C2DA0
:102980008B2D9A2DA80197010E94E23F1816A4F5FD
:10299000C801B701A80197010E94B4407B018C01D6
:1029A00069A97AA98BA99CA9905820E030E040E061
:1029B00050EC0E94B4402DA53EA54FA558A90E94F9
:1029C000B4409B01AC01C801B7010E94063D0E94C2
:1029D00021417B018C016D2D7C2D8B2D9A2D970132
:1029E000A8010E94DF3D882324F4ED2CFC2C0B2D44
:1029F0001A2DC701D80104C08D2D9C2DAB2DBA2DE9
:102A00008DA39EA3AFA3B8A781E08DABDF91CF913B
:102A10001F910F91FF90EF90DF90CF90BF90AF90FC
:102A20000895CF92DF92FF920F93DF93CF9300D060
:102A3000CDB7DEB780918106809181062091820614
:102A400090E04096821B91098F70907004970CF172
:102A50000091810603500F70CC24DD2440E050E04B
:102A600028E4F22E12C0802F002309F480E1082F01
:102A700001500F9DC00111248355994F9A8389837A
:102A8000B6014EDFA601C980DA8080918206081760
:102A900051F70F900F90CF91DF910F91FF90DF9042
:102AA000CF900895109281061092820680E1EDE2A7
:102AB000FBE0DF011D928A95E9F780E090E0A0E05D
:102AC000B0E08093410B9093420BA093430BB093E3
:102AD000440B8093450B9093460BA093470BB09308
:102AE000480B8093490B90934A0BA0934B0BB093E8
:102AF0004C0B80934D0B90934E0BA0934F0BB093C8
:102B0000500B80933D0B90933E0BA0933F0BB093E3
:102B1000400B08952F923F924F925F926F927F9257
:102B20008F929F92AF92BF92CF92DF92EF92FF92DD
:102B30000F931F93DF93CF93CDB7DEB766970FB692
:102B4000F894DEBF0FBECDBF9E8B8D8B6A017B01DB
:102B500048015901DC01D7966D917D918D919C9131
:102B6000DA970E94813E698B7A8B8B8B9C8BA701B5
:102B700096010E94B4400E94CC3D0E94533E6D835A
:102B80007E838F83988769897A898B899C89A5013F
:102B900094010E94B4400E94CC3D0E94533E698340
:102BA0007A838B839C832D813E814F815885283782
:102BB00031054105510540F448E750E060E070E020
:102BC0004D835E836F83788769817A818B819C8155
:102BD000683771058105910540F488E790E0A0E031
:102BE000B0E089839A83AB83BC83AD89BE89AD5B3A
:102BF000BF4FAD90BD90CD90DC901397A354B040E3
:102C0000BE8BAD8BDB966D917D918D919C91DE9706
:102C10000E94813E6D877E878F87988BC601B501A4
:102C20000E94813E1B012C0120E030E040E050E09A
:102C30000E94DF3D882321F4E0E070E060E028C0DE
:102C400069897A898B899C899B01AC010E94B44077
:102C50007B018C016D857E858F8598899B01AC01F8
:102C60000E94B4409B01AC01C801B7010E94053D20
:102C70007B018C01C201B101A20191010E94063DBC
:102C80009B01AC01C801B7010E94E63DE62F692F08
:102C90002E2F372F482F562FB901CA010E94CC3D45
:102CA0000E944E3E3B014C01ED89FE89FF966081FA
:102CB0007181828193810E94813E69877A878B87A7
:102CC0009C8766277727CB016A197B098C099D09A8
:102CD0000E94813E5B016C0120E030E040E050E06A
:102CE0000E94DF3D882321F4E0E070E060E028C02E
:102CF00069857A858B859C859B01AC010E94B440D7
:102D00007B018C0169897A898B899C899B01AC0143
:102D10000E94B4409B01AC01C801B7010E94053D6F
:102D20007B018C01C601B501A60195010E94063DFB
:102D30009B01AC01C801B7010E94E63DE62F692F57
:102D40002E2F372F482F562FB901CA010E94BC3EA3
:102D5000ED89FE89A088B188C288D3888601750173
:102D6000E618F708080919090E944E3EA8019701C4
:102D7000261B370B480B590B57FF71C0C201B1011D
:102D800020E030E040E050E00E94DF3D882321F465
:102D9000E0E070E060E044C0C201B101A201910135
:102DA0000E94063D7B018C01C601B5010E947F3E59
:102DB0009B01AC01C801B7010E94B4407B018C01AA
:102DC0006D857E858F8598899B01AC010E94B440FA
:102DD0009B01AC01C801B7010E94053D7B018C013C
:102DE00069857A858B859C859B01AC010E94B440E6
:102DF0009B01AC01C801B7010E94063D7B018C011B
:102E0000C201B10120E030E040E850E40E94B4404B
:102E10009B01AC01C801B7010E94E63DE62F692F76
:102E20002E2F372F482F562FB901CA010E94CC3DB3
:102E30000E944E3EAC01CB01DA013C014D0197FEF0
:102E400003C06624772443016A147B048C049D0428
:102E500010F03501460120E030E040E050E09FB73F
:102E6000F8946D897E89695B7F4FDB018C91A75453
:102E7000B040BE8BAD8B882319F5FD01648A758A3D
:102E8000868A978A260D371D481D591D58962D9301
:102E90003D934D935C935B972D813E814F81588587
:102EA000DB962D933D934D935C93DE97DF962981BE
:102EB0003A814B815C812D933D934D935C931397A5
:102EC0009FBF66960FB6F894DEBF0FBECDBFCF9101
:102ED000DF911F910F91FF90EF90DF90CF90BF9007
:102EE000AF909F908F907F906F905F904F903F90AA
:102EF0002F9008954F925F927F928F929F92AF9200
:102F0000BF92CF92DF92EF92FF920F931F93CF93D6
:102F1000DF9370908206C0E0D0E038E4432E512C5D
:102F200045C02097A9F18DA9882361F4849CF00104
:102F3000859CF00D949CF00D1124E355F94F85A963
:102F4000882331F1E9A0FAA00BA11CA16DA17EA1FB
:102F50008FA198A5A80197010E94E63D5B016C0135
:102F6000849CF001859CF00D949CF00D1124E35598
:102F7000F94F65A176A187A190A5A80197010E94AC
:102F8000E63D8B019C01CE01B601A501C3DD1DAA62
:102F9000739480E1781609F47724849CE001859C81
:102FA000D00D949CD00D1124C355D94F872C992452
:102FB00087FC90948091810690E08816990609F02C
:102FC000B0CF2097E9F0E9A0FAA00BA11CA16DA158
:102FD0007EA18FA198A5A80197010E94E63D5B0103
:102FE0006C0160E070E080E090E4A80197010E942D
:102FF000E63D8B019C01CE01B601A5018BDD1DAA2A
:10300000DF91CF911F910F91FF90EF90DF90CF90C4
:10301000BF90AF909F908F907F905F904F9008955A
:1030200000DD4EDC67CF2F923F924F925F926F92FE
:103030007F928F929F92AF92BF92CF92DF92EF9248
:10304000FF920F931F93DF93CF93CDB7DEB7C65890
:10305000D0400FB6F894DEBF0FBECDBF1B012C01D0
:10306000E7962CAF3DAF4EAF5FAFE797C556DF4F4A
:103070002881CB59D040CD57DF4F2883C358D0404B
:10308000C456DF4F3881CC59D040CC57DF4F3883FE
:10309000C458D040C356DF4F4881CD59D040CB579C
:1030A000DF4F4883C558D040C256DF4F5881CE59B4
:1030B000D040CA57DF4F5883C658D0408091810610
:1030C0008F5F803109F480E0682F772767FD709566
:1030D0007CA36BA36DC00E94B6070FB6F8948091D5
:1030E000550B9091560BA091570BB091580B0FBEFA
:1030F00060907506709076068090770690907806BE
:103100002091790630917A0640917B0650917C0699
:1031100086199709A809B909281739074A075B07CB
:1031200098F4211531054105510571F010929F0366
:1031300010929E0314981092A5031092A4037698FF
:103140005C9A709A429A469A0FB6F8948091550B01
:103150009091560BA091570BB091580B0FBE209138
:103160007D0630917E0640917F065091800686193B
:103170009709A809B909281739074A075B0748F4CE
:10318000211531054105510521F05C9A709A429A4A
:10319000469A9091820680918106981749F0909105
:1031A000820602C09F5F9F70809181069817D1F7B9
:1031B0008091820690E0ABA1BCA18A179B0709F41D
:1031C0008ACF209113013091140140911501509143
:1031D0001601E3962CAF3DAF4EAF5FAFE397C20150
:1031E000B1010E94B4400E948440AF966CAF7DAFA5
:1031F0008EAF9FAFAF97409117015091180160912A
:10320000190170911A01AB964CAF5DAF6EAF7FAFF5
:10321000AB97E7966CAD7DAD8EAD9FADE797AB9666
:103220002CAD3DAD4EAD5FADAB970E94B4400E945A
:103230008440A7966CAF7DAF8EAF9FAFA79760918C
:103240001B0170911C0180911D0190911E01A3969C
:103250006CAF7DAF8EAF9FAFA397C801B701A396A8
:103260002CAD3DAD4EAD5FADA3970E94B4400E9422
:1032700084406F966CAF7DAF8EAF9FAF6F9780919C
:103280001F0190912001A0912101B09122016B9624
:103290008CAF9DAFAEAFBFAF6B97C601B5016B965C
:1032A0002CAD3DAD4EAD5FAD6B970E94B4400E941A
:1032B000844067966CAF7DAF8EAF9FAF679780916C
:1032C0008106A82FB0E06396BFAFAEAF639788E4E6
:1032D00090E0A89FF001A99FF00DB89FF00D112478
:1032E000E355F94FE95BFF4F1082E754F04020911E
:1032F0002D0B30912E0B40912F0B5091300B61967E
:103300002CAF3DAF4EAF5FAF6197AF966CAD7DAD6B
:103310008EAD9FADAF97621B730B840B950B2D96F3
:103320006CAF7DAF8EAF9FAF2D976083718382832B
:10333000938397FF0DC0DC01CB01B095A0959095CC
:1033400081959F4FAF4FBF4F80839183A283B383FB
:103350008091310B9091320BA091330BB091340BD3
:1033600029968CAF9DAFAEAFBFAF2997A7962CAD76
:103370003DAD4EAD5FADA797281B390B4A0B5B0BDC
:1033800025962CAF3DAF4EAF5FAF259763968EADC0
:103390009FAD6397880F991FFC0173E0EE0FFF1F2D
:1033A0007A95E1F7E80FF91FEE0FFF1FEE0FFF1FF1
:1033B000EF54F94F208331834283538357FF0DC06D
:1033C000DA01C901B095A095909581959F4FAF4FB7
:1033D000BF4F80839183A283B3834091350B50917B
:1033E000360B6091370B7091380B21964CAF5DAF67
:1033F0006EAF7FAF21976F968CAD9DADAEADBFAD7B
:103400006F97841B950BA60BB70B89AF9AAFABAF29
:10341000BCAF6396EEADFFAD639753E0EE0FFF1FB9
:103420005A95E1F76396AEADBFAD6397EA0FFB1F08
:1034300043E0EE0FFF1F4A95E1F7EB54F94F29AD3A
:103440003AAD4BAD5CAD208331834283538357FF4C
:103450000DC0DA01C901B095A095909581959F4F57
:10346000AF4FBF4F80839183A283B3832090390BEA
:1034700030903A0B40903B0B50903C0B67964CAD14
:103480005DAD6EAD7FAD679742195309640975094B
:103490004DAB5EAB6FAB78AF7A018B0177FF08C0A5
:1034A00010950095F094E094E11CF11C011D111D94
:1034B00088E490E063966EAD7FAD6397689FF001FE
:1034C000699FF00D789FF00D1124E355F94FE486C4
:1034D000F586068717876080718082809380FB0164
:1034E000EE0FFF1FCF0123E0880F991F2A95E1F708
:1034F000E80FF91FEE0FFF1FEE0FFF1FEF54F94FFC
:10350000A080B180C280D380FB01A3E0EE0FFF1F3B
:10351000AA95E1F7E60FF71F53E0EE0FFF1F5A954C
:10352000E1F7EB54F94F2081318142815381D80179
:10353000C701E216F3060407150714F4DA01C901FE
:103540008A159B05AC05BD0514F4D601C5019C0187
:10355000AD0186159705A805B90514F4A4019301DA
:1035600088E490E06396AEADBFAD6397A89FF0018D
:10357000A99FF00DB89FF00D1124E355F94F208B52
:10358000318B428B538B263031054105510510F4A8
:103590000C94FC2210A2AF962CAD3DAD4EAD5FADAC
:1035A000AF9761966CAD7DAD8EAD9FAD61972617DF
:1035B00037074807590714F481E080A3A7968CAD1C
:1035C0009DADAEADBFADA79729962CAD3DAD4EAD2F
:1035D0005FAD299782179307A407B50794F488E491
:1035E00090E063964EAD5FAD6397489FF001499FB1
:1035F000F00D589FF00D1124E355F94F80A1826022
:1036000080A36F966CAD7DAD8EAD9FAD6F9721960B
:103610002CAD3DAD4EAD5FAD2197621773078407AA
:10362000950794F488E490E063964EAD5FAD6397A0
:10363000489FF001499FF00D589FF00D1124E3556C
:10364000F94F80A1846080A367966CAD7DAD8EAD8F
:103650009FAD6797621573058405950594F488E41A
:1036600090E06396AEADBFAD6397A89FF001A99FB0
:10367000F00DB89FF00D1124E355F94F80A188603B
:1036800080A388E490E063962EAD3FAD6397289FBA
:10369000F001299FF00D389FF00D1124E355F94FEB
:1036A000408151816281738149AB5AAB6BAB7CAB7A
:1036B000411551056105710509F05C986396EEAD01
:1036C000FFAD6397EE0FFF1FCF0133E0880F991F07
:1036D0003A95E1F7E80FF91FEE0FFF1FEE0FFF1FFE
:1036E000EF54F94F6080718082809380611471047F
:1036F0008104910409F070986396EEADFFAD639775
:1037000093E0EE0FFF1F9A95E1F763966EAD7FADE4
:103710006397E60FF71F83E0EE0FFF1F8A95E1F72F
:10372000EB54F94FA080B180C280D380A114B104C2
:10373000C104D10409F0429888E490E06396AEADEC
:10374000BFAD6397A89FF001A99FF00DB89FF00D42
:103750001124E355F94F84859585A685B785009793
:10376000A105B10551F046982090D1033090D203C5
:103770004090D3035090D40308C02090CD033090E4
:10378000CE034090CF035090D003CD57DF4F6881D8
:10379000C358D040CC57DF4F7881C458D040CB5766
:1037A000DF4F8881C558D040CA57DF4F9881C6582F
:1037B000D040A20191010E94DF3D87FD16C0CD5788
:1037C000DF4F8881C358D040CC57DF4F9881C45811
:1037D000D040CB57DF4FA881C558D040CA57DF4FE4
:1037E000B881C658D0401C012D018091810690916E
:1037F0008206E82FF0E07096E91BF109EF70F07097
:10380000FAA3E9A3BF01882777FD8095982F0E942E
:10381000813E7B018C0120E030E040E051E40E94D9
:10382000DF3D88239CF429A13AA12230310574F0B0
:10383000C201B101A80197010E94B44020E030E02C
:1038400040E05EE30E94B4401B012C012D966CAD5C
:103850007DAD8EAD9FAD2D970E94813EE3962CAD40
:103860003DAD4EAD5FADE3970E94E63DEC966FAF88
:10387000EC97ED967FAFED97EE968FAFEE97EF96C4
:103880009FAFEF97AC01CB01DA0189839A83AB83B9
:10389000BC8325966CAD7DAD8EAD9FAD25970E9406
:1038A000813EAB962CAD3DAD4EAD5FADAB970E946A
:1038B000E63DE8966FAFE897E9967FAFE997EA961D
:1038C0008FAFEA97EB969FAFEB97AC01CB01DA0194
:1038D0008D839E83AF83B88769AD7AAD8BAD9CAD88
:1038E0000E94813EA3962CAD3DAD4EAD5FADA3973A
:1038F0000E94E63D162F072FF82EE92EAC01CB01D2
:10390000DA0189879A87AB87BC876DA97EA98FA9C1
:1039100098AD0E94813E6B962CAD3DAD4EAD5FAD36
:103920006B970E94E63D9B01AC016D877E878F8778
:10393000988B69A97AA98BA99CA966307105810524
:1039400091051CF576E06716710481049104ECF48E
:1039500086E0A816B104C104D104BCF488E490E068
:103960006396AEADBFAD6397A89FF001A99FF00D20
:10397000B89FF00D1124E355F94FDA01C901BF7763
:1039800085A796A7A7A7B0AB4DC0EC962FADEC9737
:10399000ED963FADED97EE964FADEE97EF965FAD9E
:1039A000EF97B901CA010E945F413B014C01E896C3
:1039B0002FADE897E9963FADE997EA964FADEA97C4
:1039C000EB965FADEB97B901CA010E945F415B01C5
:1039D0006C01212F302F4F2D5E2DB901CA010E949D
:1039E0005F417B018C01C401B301A60195010E94D6
:1039F000063DA80197010E94063D0E94214128E44E
:103A000030E063964EAD5FAD6397429FF001439FF8
:103A1000F00D529FF00D1124E355F94F65A776A7DD
:103A200087A790AB88E490E063966EAD7FAD639717
:103A3000689F6001699FD00C789FD00C11248DEA9B
:103A400096E0C80ED91ED6019D96ED90FD900D9181
:103A50001C91D09760E070E080E89FE3A801970197
:103A60000E94E63D9B01AC01C201B1010E94B4403D
:103A70004B015C01C801B701A50194010E94B4404B
:103A8000F60161A372A383A394A3608971898289DB
:103A900093890E947F3EA50194010E94B4400E9438
:103AA000CC3D0E944E3ED601D7966D937D938D936B
:103AB0009C93DA97EE24FF2401E1602E712C6C0EAA
:103AC0007D1E6E010894C11CD11C83010E0D1F1DAB
:103AD000F601EE0DFF1D6081718182819381A50148
:103AE00094010E94B440F8016083718382839383C0
:103AF00024E030E0E20EF31E30E1E316F10429F792
:103B00004424552410E8612EBFE37B2E8824992499
:103B1000A1E12A2E312C2C0E3D1EF101E80DF91DDC
:103B200080819181A281B3815C016D01E894D7F815
:103B3000F401ED5DFE4FE080F18002811381C6014A
:103B4000B501A80197010E94E23F181684F4C8014C
:103B5000B701A60195010E94E63D7B018C01B201EF
:103B6000C301A80197010E94DF3D882324F4C2010C
:103B7000D3017C018D0144E050E0840E951E50E19C
:103B80008516910429F0D801C70127013D01C5CF51
:103B9000C801B70120E030E040E85FE30E94DF3D6C
:103BA00088230CF08AC044245524F1E12F2E312CB7
:103BB0002C0E3D1EF101E40DF51D80819181A28145
:103BC000B3813C014D01E89497F8F201ED5DFE4FA1
:103BD000A080B180C280D380C401B301A601950149
:103BE0000E94E23F181684F4C601B501A4019301B6
:103BF0000E94E63D5B016C01C801B701A601950179
:103C00000E94DF3D882314F45701680164E070E0EE
:103C1000460E571E70E14716510419F086017501D2
:103C2000C9CF8E010F5E1F4FE1E2EE2EF12CEC0E9C
:103C3000FD1ED8016D917D918D919C91A6019501FC
:103C40000E94B440F80161937193819391938F0125
:103C5000EE15FF0571F788E490E063962EAD3FAD59
:103C60006397289F8001299F100D389F100D112404
:103C70000355194FD80191966D917D918D919C912D
:103C80009497A60195010E94B440F80161A372A324
:103C900083A394A367A970AD81AD92AD0E94813ECC
:103CA000A60195010E94B4400E944E3ED801D796CD
:103CB0006D937D938D939C93DA9788E490E063965F
:103CC000EEADFFAD6397E89F8001E99F100DF89F6F
:103CD000100D11240355194FD80150966D917D9107
:103CE0008D919C9153970E947F3EF80125A536A5A2
:103CF00047A550A90E94E63D1B012C01F8018081D7
:103D00009181A281B3810097A105B10509F053C04B
:103D10006396EEADFFAD6397EE0FFF1FCF0163E03B
:103D2000880F991F6A95E1F7E80FF91FEE0FFF1F43
:103D3000EE0FFF1FEF54F94F80819181A281B38173
:103D40000097A105B105B9F56396EEADFFAD639798
:103D500043E0EE0FFF1F4A95E1F763962EAD3FADAE
:103D60006397E20FF31F33E0EE0FFF1F3A95E1F781
:103D7000EB54F94F80819181A281B3810097A10515
:103D8000B105C9F4C201B101209143013091440150
:103D900040914501509146010E94B4400E94CC3DA3
:103DA0000D5B1F4F0E944E3ED8016D937D938D9306
:103DB0009C93139798C1C201B10120913F013091AA
:103DC000400140914101509142010E94B4400E9443
:103DD000CC3D0E944E3E28E430E06396EEADFFAD50
:103DE0006397E29F6001E39FD00CF29FD00C1124F7
:103DF0002DEA36E0C20ED31E23E4622E712C6C0C29
:103E00007D1CD3016D937D938D939C93139780902C
:103E1000D5039090D603A090D703B090D8030E940A
:103E2000813E7B018C01F6016081718182819381E9
:103E30000E94813E9B01AC01C801B7010E94B440C1
:103E40007B018C01D60150966D917D918D919C9155
:103E500053970E947F3E9B01AC01C801B7010E94AD
:103E6000E63D7B018C01C501B4010E947F3E9B01B0
:103E7000AC01C801B7010E94E23F18162CF4F3010F
:103E800080829182A282B3828090D9039090DA03DB
:103E9000A090DB03B090DC0388E490E063962EAD45
:103EA0003FAD6397289F6001299FD00C389FD00CAD
:103EB00011244DEA56E0C40ED51E93E4692E712CF0
:103EC0006C0C7D1CD3016D917D918D919C910E9414
:103ED000813E7B018C016396EEADFFAD6397EE0FE3
:103EE000FF1FCF01B3E0880F991FBA95E1F7E80FE4
:103EF000F91FEE0FFF1FEE0FFF1FEF54F94F608108
:103F00007181828193810E94813E9B01AC01C80135
:103F1000B7010E94B4407B018C01F6016089718970
:103F2000828993890E947F3E9B01AC01C801B70141
:103F30000E94E63D7B018C01C501B4010E947F3ED9
:103F40009B01AC01C801B7010E94E23F181634F48E
:103F5000D3018D929D92AD92BC9213978090E10314
:103F60009090E203A090E303B090E40388E490E033
:103F70006396EEADFFAD6397E89F6001E99FD00CBB
:103F8000F89FD00C11242DEA36E0C20ED31E73E444
:103F9000672E712C6C0C7D1CD3016D917D918D91E0
:103FA0009C910E94813E7B018C01F60164857585A0
:103FB000868597850E94813E9B01AC01C801B701AF
:103FC0000E94B4407B018C01D60150966D917D9189
:103FD0008D919C9153970E947F3E9B01AC01C8013B
:103FE000B7010E94E63D7B018C01C501B4010E942E
:103FF0007F3E9B01AC01C801B7010E94E23F181649
:104000002CF4F30180829182A282B3828090DD033E
:104010009090DE03A090DF03B090E00388E490E08E
:1040200063962EAD3FAD6397289F6001299FD00C0A
:10403000389FD00C11244DEA56E0C40ED51E63E41F
:10404000662E712C6C0C7D1CD3016D917D918D9130
:104050009C910E94813E7B018C016396EEADFFAD89
:10406000639753E0EE0FFF1F5A95E1F763962EAD6D
:104070003FAD6397E20FF31F43E0EE0FFF1F4A953A
:10408000E1F7EB54F94F60817181828193810E9445
:10409000813E9B01AC01C801B7010E94B4407B0185
:1040A0008C01D60150966D917D918D919C91539785
:1040B0000E947F3E9B01AC01C801B7010E94E63D12
:1040C0007B018C01C501B4010E947F3E9B01AC01C4
:1040D000C801B7010E94E23F18162CF4F301808258
:1040E0009182A282B38288E490E063962EAD3FADC8
:1040F0006397289F6001299FD00C389FD00C112412
:104100004DEA56E0C40ED51EF601ED5BFF4F60810F
:104110007181828193810E94813E7B018C01A20189
:1041200091010E94E63DD601D1966D937D938D93CA
:104130009C93D497C801B7012DEB37E346E051E4D7
:104140000E94B4400E944E3EF601648F758F868FA8
:10415000978F20914701309148014091490150913A
:104160004A012DA73EA74FA758AB498D5A8D6B8D9D
:104170007C8D49A75AA76BA77CA760914B017091D2
:104180004C0180914D0190914E016DA37EA38FA3B0
:1041900098A720E030E040E05FE30E94B4403B019C
:1041A0004C0169A57AA58BA59CA59F77A4019301D5
:1041B0000E94E23F181664F06DA57EA58FA598A910
:1041C00020E030E040E05FE30E94B4403B014C015E
:1041D00088E490E06396AEADBFAD6397A89FF00111
:1041E000A99FF00DB89FF00D1124E355F94FB1A12F
:1041F000C158DF4FB883CF57D04022A1C058DF4FFE
:104200002883C058D04033A1CF57DF4F3883C158DF
:10421000D04044A1CE57DF4F4883C258D040C4019C
:10422000B3012B2FC058DF4F3881C058D040CF5733
:10423000DF4F4881C158D040CE57DF4F5881C25818
:10424000D0400E94DF3D87FD16C0C158DF4F8881F6
:10425000CF57D040C058DF4F9881C058D040CF577B
:10426000DF4FA881C158D040CE57DF4FB881C25828
:10427000D0403C014D0169A17AA1623071050CF476
:10428000B5C060913D0B70913E0B80913F0B9091BA
:10429000400B20E030E040E050E00E94E23F181682
:1042A0000CF0A4C0A090410BB090420BC090430B07
:1042B000D090440B69897A898B899C89A6019501E4
:1042C0000E94053D9B01AC010E94B4407B018C0122
:1042D0002090450B3090460B4090470B5090480B78
:1042E0006D897E898F89988DA20191010E94053D7B
:1042F0009B01AC010E94B4409B01AC01C801B70115
:104300000E94063D0E9421417B018C01C601B5013E
:1043100020E030E040E050E00E94DF3D882351F48F
:10432000C201B10120E030E040E050E00E94DF3DFA
:104330008823B1F0C158DF4F8881CF57D040C05893
:10434000DF4F9881C058D040CF57DF4FA881C15868
:10435000D040CE57DF4FB881C258D0403C014D010C
:10436000C801B7012DA53EA54FA558A90E94E23F5F
:10437000181684F46DA57EA58FA598A9A8019701AC
:104380000E94E63D9B01AC01C401B3010E94B44010
:104390003B014C0169A57AA58BA59CA52091490BF1
:1043A00030914A0B40914B0B50914C0B0E94053DB4
:1043B0007B018C01E89417F9C801B7012DA13EA13A
:1043C0004FA158A50E94E23F181684F46DA17EA16A
:1043D0008FA198A5A80197010E94E63D9B01AC0121
:1043E000C401B3010E94B4403B014C0188E490E059
:1043F0006396AEADBFAD6397A89F8001A99F100DD6
:10440000B89F100D11240355194FF80161A672A62B
:1044100083A694A661A972A983A994A9905820E0C3
:1044200030E040E050EC0E94B440D8019D962D91C0
:104430003D914D915C91D0970E94B44020E030E0D6
:1044400040E850E40E94063D0E942141F62EE72EEE
:10445000D82EC92EC401B3012F2D3E2D4D2D5C2D1C
:104460000E94DF3D87FD06C08F2D9E2DAD2DBC2DFA
:104470003C014D0188E490E06396EEADFFAD63979B
:10448000E89F8001E99F100DF89F100D112403553E
:10449000194FD80195966D927D928D929C92989726
:1044A00091966D917D918D919C9194972F2D3E2D9C
:1044B0004D2D5C2D0E94DF3D181624F081E0F8019F
:1044C00086AB03C0D801D6961C9288E490E0639630
:1044D0002EAD3FAD6397289FF001299FF00D389FC7
:1044E000F00D1124E355F94F81E085ABA1E4BBE069
:1044F000FE01719680E101900D928150E1F788E410
:1045000090E063964EAD5FAD6397489F6001499F11
:10451000D00C589FD00C11246DEA76E0C60ED71E41
:10452000D6019196ED90FD900D911C919497E0929B
:104530003D0BF0923E0B00933F0B1093400B959672
:104540006D917D918D919C919897A80197010E9402
:10455000E63D4B015C0160E070E080E090E4A80182
:1045600097010E94E63D8B019C01C601B501A401A3
:104570000E948A15BBA1B093810667962CAD3DAD14
:104580004EAD5FAD67972093390B30933A0B409354
:104590003B0B50933C0B6F964CAD5DAD6EAD7FAD5C
:1045A0006F974093350B5093360B6093370B709396
:1045B000380BA7966CAD7DAD8EAD9FADA797609380
:1045C000310B7093320B8093330B9093340BAF9677
:1045D0008CAD9DADAEADBFADAF9780932D0B9093DD
:1045E0002E0BA0932F0BB093300B0E9410188091CC
:1045F0006F00826080936F00CA57DF4F0FB6F89448
:10460000DEBF0FBECDBFCF91DF911F910F91FF9005
:10461000EF90DF90CF90BF90AF909F908F907F9062
:104620006F905F904F903F902F9008952F923F9200
:104630004F925F926F927F928F929F92AF92BF92B2
:10464000CF92DF92EF92FF920F931F93CF93DF935E
:1046500080911504882309F054C06091E80370919B
:10466000E9038091EA039091EB0320E030E04EE310
:1046700053E40E94E23F181664F480E090E0AEE359
:10468000B3E48093E8039093E903A093EA03B09323
:10469000EB036091EC037091ED038091EE03909138
:1046A000EF0320E030E048E453E40E94E23F1816B4
:1046B00064F480E090E0A8E4B3E48093EC0390938A
:1046C000ED03A093EE03B093EF036091F0037091BC
:1046D000F1038091F2039091F30320E030E048EC85
:1046E00052E40E94E23F181664F480E090E0A8ECE7
:1046F000B2E48093F0039093F103A093F203B0939C
:10470000F30360915F017091600100D000D0CDB7DC
:10471000DEB721966090E8037090E9038090EA0389
:104720009090EB032090EC033090ED034090EE036B
:104730005090EF03E090F003F090F1030091F2034A
:104740001091F303A090F403B090F503C090F6032A
:10475000D090F703882777FD8095982F20916201EC
:1047600030916301442737FD4095542F0E947A41D0
:104770000E94813E20E030E84BEB55E40E94E63D8C
:10478000688379838A839B83C401B301A201910169
:104790000E9413188091E8039091E903A091EA0325
:1047A000B091EB038093F8039093F903A093FA037D
:1047B000B093FB038091EC039091ED03A091EE0385
:1047C000B091EF038093FC039093FD03A093FE034D
:1047D000B093FF038091F0039091F103A091F20355
:1047E000B091F3038093000490930104A09302041A
:1047F000B09303048091F4039091F503A091F60324
:10480000B091F7038093040490930504A0930604E9
:10481000B09307040F900F900F900F90DF91CF91FE
:104820001F910F91FF90EF90DF90CF90BF90AF90CE
:104830009F908F907F906F905F904F903F902F90C0
:1048400008957F928F929F92AF92BF92CF92DF9204
:10485000EF92FF920F931F93782E60911604709140
:104860001704809118049091190420911A04309132
:104870001B0440911C0450911D040E94EF3F7B01DA
:104880008C0160915F017091600100D000D00F92A7
:104890008DB69EB60894811C911C882777FD809563
:1048A000982F2091620130916301442737FD409594
:1048B000542F0E947A410E94813E20E030E84BEB69
:1048C00055E40E94E63D5B016C01F401E082F18257
:1048D00002831383748288EF93E068EE73E046E10D
:1048E00054E020E001E0F2E0EF2E0E94120A8091F5
:1048F000E8039091E903A091EA03B091EB03809360
:10490000F8039093F903A093FA03B093FB0380910B
:10491000EC039091ED03A091EE03B091EF0380932F
:10492000FC039093FD03A093FE03B093FF038091DB
:10493000F0039091F103A091F203B091F3038093FF
:10494000000490930104A0930204B09303048091A7
:10495000F4039091F503A091F603B091F7038093CF
:10496000040490930504A0930604B09307040F90E9
:104970000F900F900F900F901F910F91FF90EF905D
:10498000DF90CF90BF90AF909F908F907F900895D1
:10499000EF92FF920F931F937C010E9401388C01CC
:1049A000C7010E9458379C01200F311FC9011F9178
:1049B0000F91FF90EF9008950F931F930AE51BE06E
:1049C000C8010E9448398BEF98E00E94930D4091F6
:1049D00010045091110460911204709113044F5F00
:1049E0005F4F6F4F7F4FC801D3DF0E94A90D1F910A
:1049F0000F910895CF92DF92EF92FF920F931F9342
:104A0000CF93DF93B0E6EB2EF12CA0E6DA2ECC2488
:104A1000C39443C14D3051F04A3341F020916C06AC
:104A200030916D062F3531050CF41AC1A0916C063A
:104A3000B0916D06109719F410926E0644C1E09182
:104A40006906F0E0EE9D8001EF9D100DFE9D100DBA
:104A50001124A00FB11FAE5DBB4F1C92EE59F94F50
:104A60001082E801CE5DDB4FCE016EE470E00E9463
:104A7000A5449C01009709F498C090937006809318
:104A80006F062F5F3F4F2C1B3D0B200F311FC901BD
:104A90008E5D9B4F60E070E04AE050E00E94594319
:104AA00060930C0470930D0480930E0490930F0494
:104AB000209110043091110440911204509113047C
:104AC0002F5F3F4F4F4F5F4F621773078407950764
:104AD00081F0809169068D9DC00111248E5D9B4FF0
:104AE00060E071E00E94B044009719F48DE899E00D
:104AF00035C08091690690E08E9DE0018F9DD00DBC
:104B00009E9DD00D1124CE018E5D9B4F6AE270E018
:104B10000E94A5449C010097A1F110E040E0CE0165
:104B200002C01E274F5FFC01E40FF11DEE5DFB4F3D
:104B3000E081EA32B1F73093700620936F06C90125
:104B4000019660E070E00E9403420E944E3E212FD9
:104B500030E026173707C1F088E699E00E94930DF0
:104B6000409110045091110460911204709113044B
:104B70008AE59BE00DDF20DF10926D0610926C0637
:104B8000A2C088E399E0EACF80910C0490910D04D3
:104B9000A0910E04B0910F0480931004909311041F
:104BA000A0931204B093130417C0CE016AE270E020
:104BB0000E94A544009781F088E099E00E94930D3F
:104BC00040911004509111046091120470911304EB
:104BD0008AE59BE0DDDED0CF8091690690E08E9D76
:104BE00080018F9D100D9E9D100D1124E801CE5D5A
:104BF000DB4FCE0167E470E00E94A5449C01009762
:104C0000D1F09093700680936F062F5F3F4F2C1B5F
:104C10003D0B200F311FC9018E5D9B4F60E070E09E
:104C20000E9403420E944E3E6430710520F483E0EE
:104C300099E00E94930D809169068F5F80936906C9
:104C4000863011F41092690680916A068F5F809316
:104C50006A0610926E0610926D0610926C061DC0C8
:104C60004B3311F4C0926E0680916E068823A9F42E
:104C70008091690690E08E9DF0018F9DF00D9E9DC4
:104C8000F00D1124E20FF31FEE5DFB4F40832F5F09
:104C90003F4F30936D0620936C068AE59BE00E949F
:104CA000E038181619067CF480916A06863058F4AC
:104CB0008AE59BE00E941939482F80936B068A3061
:104CC00009F0A8CEB3CEDF91CF911F910F91FF9045
:104CD000EF90DF90CF90089580916A06853008F4B8
:104CE00089CE0895CF93DF93DB010D900020E9F783
:104CF0001197A61BB70BEC01E881F9810280F381C3
:104D0000E02DAD010995DF91CF9108956F927F92CB
:104D10008F929F92AF92BF92CF92DF92EF92FF92CB
:104D20000F931F93DF93CF9300D0CDB7DEB7809161
:104D30006A06853008F45EDE80916A06882311F4E5
:104D40000C94043480916806F0E6FF2E8F9D80015C
:104D500011240E5D1B4FC80167E470E00E94A5445A
:104D60009093700680936F06009709F490C70196A0
:104D700060E070E00E9403420E944E3E6430710584
:104D800009F47EC26530710564F46230710509F47E
:104D9000B8C0633071050CF09EC17723CCF40C943D
:104DA000F4336A35710509F402C76B35710534F4C3
:104DB0006C31710511F00C94F433C5C26B3571057B
:104DC00009F4F8C66C35710511F00C94F433F6C68D
:104DD0000E94B607E8EF8E2EE3E09E2E78EEA72E17
:104DE00073E0B72E00E010E060E6662E8091680662
:104DF000869DC0011124F801E15FFE4F6081772795
:104E000067FD70958E5D9B4F0E94A5449093700640
:104E100080936F06009759F1019660E070E00E9460
:104E200003426B017C01F801E753FC4F808188232A
:104E300011F061E002C06091140470E0882777FDF2
:104E40008095982F0E94813EF4012081318142811A
:104E500053810E94B4409B01AC01C701B6010E947E
:104E6000063DF50160837183828393830AC0F40158
:104E700080819181A281B381F50180839183A28396
:104E8000B3830F5F1F4F84E090E0880E991EA80E39
:104E9000B91E0430110509F0A9CF8091680620E6FB
:104EA000829FC00111248E5D9B4F66E470E00E94DA
:104EB000A5449093700680936F06009701F10196C8
:104EC00060E070E00E9403420E944E3E7B018C0134
:104ED0007093090460930804B701882777FD8095D3
:104EE000982F0E94813E20E030E040E050E00E9498
:104EF000E23F181624F4F0926301E092620196DB1F
:104F0000D5C058EF852E53E0952E48EEA42E43E0F1
:104F1000B42E00E010E030E6632E80916806869D96
:104F2000C0011124F801E15FFE4F6081772767FD22
:104F300070958E5D9B4F0E94A54490937006809360
:104F40006F06009759F1019660E070E00E940342FD
:104F50006B017C01F801E753FC4F8081882311F03D
:104F600061E002C06091140470E0882777FD8095AD
:104F7000982F0E94813EF40120813181428153812A
:104F80000E94B4409B01AC01C701B6010E94063DDE
:104F9000F50160837183828393830AC0F401808169
:104FA0009181A281B381F50180839183A283B38330
:104FB0000F5F1F4F84E090E0880E991EA80EB91E67
:104FC0000430110509F0A9CF8091680620E6829F80
:104FD000C00111248E5D9B4F66E470E00E94A544E1
:104FE0009093700680936F06009701F1019660E040
:104FF00070E00E9403420E944E3E7B018C01709340
:10500000090460930804B701882777FD8095982FDD
:105010000E94813E20E030E040E050E00E94E23F0C
:10502000181624F4F0926301E09262018091680600
:1050300020E6829FC00111248E5D9B4F69E470E0E1
:105040000E94A5449093700680936F06009769F0C4
:10505000019660E070E00E94034260931604709332
:10506000170480931804909319048091680620E631
:10507000829FC00111248E5D9B4F6AE470E00E9404
:10508000A5449093700680936F06009769F001968F
:1050900060E070E00E94034260931A0470931B0466
:1050A00080931C0490931D0481E0CBDB0FB6F89431
:1050B0008091550B9091560BA091570BB091580BC6
:1050C0000FBE8093750690937606A0937706B093F3
:1050D00078060C94F63328EF822E23E0922E98EE79
:1050E000A92E93E0B92E00E010E080E6682E8091B2
:1050F0006806869DC0011124F801E15FFE4F6081C2
:10510000772767FD70958E5D9B4F0E94A544909315
:10511000700680936F06009759F1019660E070E089
:105120000E9403426B017C01F801E753FC4F808130
:10513000882311F061E002C06091140470E08827B8
:1051400077FD8095982F0E94813EF4012081318166
:10515000428153810E94B4409B01AC01C701B6015A
:105160000E94063DF50160837183828393830AC0A8
:10517000F40180819181A281B381F50180839183C3
:10518000A283B3830F5F1F4F84E090E0880E991EC7
:10519000A80EB91E0430110509F0A9CF8091680648
:1051A00020E6829FC00111248E5D9B4F66E470E073
:1051B0000E94A5449093700680936F06009701F1BA
:1051C000019660E070E00E9403420E944E3E7B0127
:1051D0008C017093090460930804B701882777FD58
:1051E0008095982F0E94813E20E030E040E050E022
:1051F0000E94E23F181624F4F0926301E0926201EB
:105200008091680620E6829FC00111248E5D9B4F2D
:1052100069E470E00E94A5449093700680936F0645
:10522000009769F0019660E070E00E94034260938D
:1052300016047093170480931804909319048091B6
:10524000680620E6829FC00111248E5D9B4F6AE4B0
:1052500070E00E94A5449093700680936F060097BB
:1052600069F0019660E070E00E94034260931A04C6
:1052700070931B0480931C0490931D0480E015CF51
:10528000809168068F9DC00111248E5D9B4F60E563
:1052900070E00E94A5449093700680936F0600977B
:1052A00021F4AA24BB24650109C0019660E070E0E6
:1052B0000E9403420E94533E5B016C01809168068C
:1052C00020E6829FC00111248E5D9B4F63E570E054
:1052D0000E94A5449093700680936F06009779F022
:1052E000019660E070E00E94034220E030E04AE76F
:1052F00054E40E94B4400E94533E5B016C010FB61F
:10530000F894E090550BF090560B0091570B1091CC
:10531000580B0FBEEA0CFB1C0C1D1D1D02C00E9489
:10532000B6070FB6F8948091550B9091560BA0914B
:10533000570BB091580B0FBE8E159F05A007B107F4
:1053400070F30C94F4338091620190916301909317
:105350000B0480930A0480915F0190916001909307
:10536000E6038093E5030FB6F8948091550B909176
:10537000560BA091570BB091580B0FBE809375063A
:1053800090937606A0937706B093780684E690E033
:105390009093600180935F0121E0209365018091EB
:1053A000F8039091F903A091FA03B091FB03809365
:1053B000E8039093E903A093EA03B093EB03809191
:1053C000FC039091FD03A091FE03B091FF03809335
:1053D000EC039093ED03A093EE03B093EF03809161
:1053E000000490910104A0910204B0910304809301
:1053F000F0039093F103A093F203B093F303809131
:10540000040490910504A0910604B09107048093D0
:10541000F4039093F503A093F603B093F70310926F
:1054200063011092620120931504809168068F9D9C
:10543000800111240E5D1B4F60910F01772767FDDE
:105440007095C8010E94A5449093700680936F06E2
:105450000097F1F460911001772767FD7095C801FE
:105460000E94A5449093700680936F06009781F484
:1054700060911101772767FD7095C8010E94A544CE
:105480009093700680936F06009711F481E001C03D
:1054900080E0809361018823B1F48091680620E662
:1054A000829FC001112460910F01772767FD7095DD
:1054B0008E5D9B4F0E94A5449093700680936F066B
:1054C000009709F400C10E94CA1280E090E8AEE89B
:1054D000B3E48093F8039093F903A093FA03B09395
:1054E000FB032091FC033091FD034091FE0350919A
:1054F000FF03E0900004F090010400910204109179
:105500000304A0900404B0900504C0900604D09059
:105510000704BC01CD010E9449130F2EF0E06F2E4D
:10552000F0E07F2EF0E08F2EF0E09F2EF02D6092C5
:10553000E8037092E9038092EA039092EB03609192
:1055400033017091340180913501909136010E94B0
:105550004E3E709363016093620168D80E94CA1244
:1055600080E090E0A0EAB0EC8093F8039093F90318
:10557000A093FA03B093FB032091FC033091FD0349
:105580004091FE035091FF03E0900004F09001046D
:105590000091020410910304A0900404B09005044B
:1055A000C0900604D0900704BC01CD010E944913AD
:1055B0006092E8037092E9038092EA039092EB0311
:1055C00035D80E94CA1280E090E0A0E2B1E4809356
:1055D000F8039093F903A093FA03B093FB0320918F
:1055E000FC033091FD034091FE035091FF03E090D6
:1055F0000004F09001040091020410910304A090B3
:105600000404B0900504C0900604D0900704BC01C7
:10561000CD010E9449136092E8037092E9038092E1
:10562000EA039092EB036091330170913401809111
:1056300035019091360120E030E040E05FE30E94C8
:10564000B4400E944E3E70936301609362010E94D9
:1056500016230E94CA126092F8037092F903809296
:10566000FA039092FB032091FC033091FD034091DB
:10567000FE035091FF03E0900004F09001040091BC
:10568000020410910304A0900404B0900504C0909B
:105690000604D0900704C401B3010E94491380910D
:1056A000F8039091F903A091FA03B091FB03809362
:1056B000E8039093E903A093EA03B093EB031092FD
:1056C000630110926201809161018823B1F480919D
:1056D000680620E6829FC00111246091100177279F
:1056E00067FD70958E5D9B4F0E94A5449093700658
:1056F00080936F06009709F406C180E090E0A6E968
:10570000B3E48093FC039093FD03A093FE03B09356
:10571000FF036091F8037091F9038091FA0390916F
:10572000FB03E0900004F09001040091020410914A
:105730000304A0900404B0900504C0900604D09027
:10574000070420E030E046E953E40E9449130F2E9D
:10575000F0E06F2EF0E07F2EF0E08F2EF0E09F2E35
:10576000F02D6092EC037092ED038092EE03909224
:10577000EF03609137017091380180913901909168
:105780003A010E944E3E70936301609362010E9451
:1057900016230E94CA1280E090E0A0EAB0EC809349
:1057A000FC039093FD03A093FE03B093FF0360916D
:1057B000F8037091F9038091FA039091FB03E09054
:1057C0000004F09001040091020410910304A090E1
:1057D0000404B0900504C0900604D090070420E0B3
:1057E00030E040EA50EC0E9449136092EC03709262
:1057F000ED038092EE039092EF030E9416230E9425
:10580000CA1280E090E0A0E2B1E48093FC039093A0
:10581000FD03A093FE03B093FF036091F803709122
:10582000F9038091FA039091FB03E0900004F0905B
:1058300001040091020410910304A0900404B090AC
:105840000504C0900604D090070420E030E040E258
:1058500051E40E9449136092EC037092ED03809230
:10586000EE039092EF0360913701709138018091BF
:10587000390190913A0120E030E040E05FE30E947E
:10588000B4400E944E3E70936301609362010E9497
:1058900016230E94CA126092FC037092FD0380924C
:1058A000FE039092FF036091F8037091F9038091D9
:1058B000FA039091FB03E0900004F0900104009142
:1058C000020410910304A0900404B0900504C09059
:1058D0000604D0900704A40193010E94491380910B
:1058E000FC039091FD03A091FE03B091FF03809310
:1058F000EC039093ED03A093EE03B093EF031092AB
:10590000630110926201809161018823B1F480915A
:10591000680620E6829FC00111246091110177275B
:1059200067FD70958E5D9B4F0E94A5449093700615
:1059300080936F06009709F414C180E090E0A6E11F
:10594000B3E48093000490930104A0930204B09305
:1059500003046091F8037091F9038091FA03909128
:10596000FB032091FC033091FD034091FE03509115
:10597000FF03A0900404B0900504C0900604D090EA
:1059800007040F2EF0E0EF2EF0E0FF2EF6E10F2FD0
:10599000F3E41F2FF02D0E9449130F2EF0E06F2E1D
:1059A000F0E07F2EF0E08F2EF0E09F2EF02D609241
:1059B000F0037092F1038092F2039092F3036091EE
:1059C0003B0170913C0180913D0190913E010E940C
:1059D0004E3E70936301609362010E9416230E9401
:1059E000CA1280E090E0A0E0B0EC809300049093B5
:1059F0000104A0930204B09303046091F803709132
:105A0000F9038091FA039091FB032091FC033091FC
:105A1000FD034091FE035091FF03A0900404B09059
:105A20000504C0900604D09007040F2EF0E0EF2E7E
:105A3000F0E0FF2EF0E00F2FF0EC1F2FF02D0E9472
:105A400049136092F0037092F1038092F2039092F6
:105A5000F3030E9416230E94CA1280E090E0A0E4A3
:105A6000B0E48093000490930104A0930204B093E7
:105A700003046091F8037091F9038091FA03909107
:105A8000FB032091FC033091FD034091FE035091F4
:105A9000FF03A0900404B0900504C0900604D090C9
:105AA00007040F2EF0E0EF2EF0E0FF2EF0E40F2FB2
:105AB000F0E41F2FF02D0E9449136092F0037092C2
:105AC000F1038092F2039092F30360913B01709195
:105AD0003C0180913D0190913E0120E030E040E0AA
